:020000041000EA
:1000000000B5324B212058609868022188439860DF
:10001000D860186158612E4B002199600221596106
:100020000121F02299502B49196001219960352056
:1000300000F044F80222904214D00621196600F024
:1000400034F8196E01211966002018661A6600F04E
:100050002CF8196E196E196E052000F02FF8012189
:100060000842F9D1002199601B49196000215960AB
:100070001A491B48016001219960EB211966A021F2
:10008000196600F012F800219960164914480160C1
:100090000121996001BC002800D000471248134993
:1000A000086003C880F30888084703B5996A0420EC
:1000B0000142FBD001200142F8D103BD02B5186610
:1000C0001866FFF7F2FF186E186E02BD00000240BE
:1000D000000000180000070000035F00212200005C
:1000E000F4000018222000A00001001008ED00E03C
:1000F00000000000000000000000000074B24E7A12
:1001000000200420F7010010C3010010C5010010F9
:10011000C1010010C1010010C1010010C101001097
:10012000C1010010C1010010C1010010C701001081
:10013000C1010010C1010010C9010010CB01001065
:10014000CD010010CD010010CD010010CD01001037
:10015000CD010010CD010010CD010010CD01001027
:10016000CD010010CD010010CD010010CD01001017
:10017000CD010010CD010010CD010010CD01001007
:10018000CD010010CD010010CD010010CD010010F7
:10019000CD010010CD010010CD010010CD010010E7
:1001A000CD010010CD010010CD010010CD010010D7
:1001B000CD010010CD010010CD010010CD010010C7
:1001C00000BE00BE00BE00BE00BE00BEEFF3058054
:1001D000103800BEF2EB8871185800103C5800101F
:1001E0003402001090A31AE700201F49086006C8D7
:1001F00081F3088810471D48006800282FD10DA4FE
:100200000ECC002902D000F012F8F9E71849194A7B
:10021000002000E001C19142FCD1174988471749ED
:1002200088471749884700BEFDE701C901C29A42C5
:10023000FBD370473C580010C0000020040300208E
:10024000805A00100000042000000420805A001092
:10025000001004200010042000000000704709482E
:1002600003F03CF80047000008ED00E0000000D07B
:1002700008030020E006002065200010390300106C
:10028000212000105756000006005250ABB36053B7
:100290007057001006005250861C03028057001051
:1002A000060052505422A29D8C5700100500525057
:1002B000DE65F468805A0010F8B5C04610B5064CEB
:1002C0002378002B07D1054B002B02D0044800E017
:1002D00000BF0123237010BD0804002000000000AF
:1002E000C8460010044B10B5002B03D00349044846
:1002F00000E000BF10BDC046000000000C0400205C
:10030000C846001082B00B4B9B6910210A001A40AE
:1003100019420DD16B46D91D002AF4D1054B9B69BA
:10032000DB06FBD4034B1B680B7001320131F3E792
:1003300002B070470040034030B583B004F062F86B
:10034000192000F0BDF80A2000F0BAF8092000F0EA
:10035000B7F8D0231B06802292045A628022D20072
:100360005A62802292005A629621434C0901200071
:1003700001F05EFC0221002000F08AF80221012039
:1003800000F086F8E1214902200001F0F1FB226B28
:10039000C0231B021A4080256D01384B2B431A6085
:1003A000002301220821200001F010FC0021200080
:1003B00001F022FC3249142000F06AF901211420D6
:1003C00000F056F95023A363626B183B13402D4A8B
:1003D00015432B6000232C4832E06B46DA1D147065
:1003E000002108E0244B9B699B06FBD41478224B28
:1003F0001C60013101320029F4D01BE06B46DA1D8C
:100400000D2313700021002924D11B4B9B699B06EF
:10041000FBD41578184B1D6001310132F3E7164B00
:100420009B699B06FBD41478134B1C60013101328D
:100430000029F4D003780D3B5A425341DBB201301E
:100440000478002C0BD0002BC7D1104B00229B5EF0
:10045000A342D3D06B46DA1D14700021E8E7D02305
:100460001B06802292045A618022D2005A618022A7
:1004700092009A61F3E7C0460040034030400340D9
:100480000503001034400340C8460010D406002085
:1004900010B58300084A944663441C6840226240B9
:1004A000C02414408022520113431C60C000034B3F
:1004B0009C466044416010BD04C0014000400140C2
:1004C00010B501238340D022120693629361052167
:1004D000FFF7DEFF10BD0000034B1B680220184031
:1004E000431E9841C0B2704700C00640EFF3108031
:1004F00072B6034B1B68002BFBD0BFF35F8F7047B6
:100500002C0100D0BFF35F8F024B00221A6080F3F2
:10051000108870472C0100D0F8B506000C001500BB
:10052000FFF7E4FFE308F718F15C072222400123FC
:1005300093400B4205D1DBB20B433B70FFF7E2FF68
:10054000F8BD2100280001F009FE0000002307E0AB
:10055000054A9A189200BFF35F8F002111600133A2
:100560001F2BF5D97047C04640000034054A10786B
:10057000431CDBB21370172B02D9130010221A7020
:100580007047C04638020020074B9B68103080003F
:100590001950BFF35F8FBFF35F8F044B00211960C9
:1005A00082F310887047C04600ED00E0240100D0BF
:1005B00010B5091A081F0A4B9C466144094A91422A
:1005C00008D8C30706D440104005400D064B184319
:1005D00080B210BD054B064AA321064801F024FD58
:1005E000FC070000FE0F000000E0FFFFE4460010E3
:1005F000684900101447001010B5091A04394C0856
:10060000090B08D14905490D064A11430180064BE3
:100610002343438010BD054B054AAB21054801F03B
:1006200003FDC04600F0FFFF00F8FFFF8447001005
:100630003C4900101447001001238340034A10680E
:100640001840431E9841C0B27047C04600E100E028
:10065000002904D0034B1860034B18607047034B0C
:100660001860FBE780E200E000E100E080E100E0EC
:1006700010B5012383401800FFF7EAFF10BD00000A
:10068000024B9B6810308000C058704700ED00E0BE
:1006900070B504000D00EFF3108672B60C4B1B68AA
:1006A000002BFBD0BFF35F8F2000FFF7E9FF094B62
:1006B000984201D0A84205D1320029002000FFF75E
:1006C00063FF70BD044B054A8621054801F0ACFC70
:1006D000240100D0CD01001094470010844900107F
:1006E00014470010F0B5CE46474680B583B00600EB
:1006F0000D00EFF3108872B6564B1B68002BFBD031
:10070000BFF35F8F544B9A6834001034A300D7585E
:10071000524B9F4207D0AF4200D198E00197504B17
:10072000FB1A2F2B09D9424639003000FFF72CFF66
:1007300003B0C0BCB946B046F0BD3000FFF77CFF47
:10074000814600213000FFF793FFBFF35F8FEFF387
:100750000581002901D08C4211D10123019C9C43C9
:100760000022A368AB4212D00622A256002A0DDB5B
:1007700053009B189B002200394CE418F1E7362106
:10078000384B394AFF31394801F04EFC2200AB4268
:1007900056D106256557002D38DB6B005B199A0092
:1007A0002F4B9B189A68A260DA79E27106229A565A
:1007B000A2719B795BB2002B0FDA2D48A0806B00F1
:1007C0005B199B00264AD3182A4A11789971157033
:1007D00049463000FFF74CFFA5E7201D6B005B1971
:1007E0009B001F4A9B181A1D9B88D90A1C2907D1F8
:1007F0005B055B15023359005118FFF7D9FEDDE7A1
:100800001D4B1E4AB121194801F00EFC002912D1DE
:10081000002A0ED0FF239371194B9380154A137849
:10082000A371184B0E49641A644163431B0D137086
:10083000CEE70A4FF2E7201D1349FFF7DDFEC7E7B9
:100840006A21124B084AFF31084801F0EDFB034FC3
:1008500069E7C046240100D000ED00E0CD010010A2
:100860003C020020A8480010544900101447001012
:1008700001BD0000DD060020904800107449001002
:1008800001BDFFFFAAAA000076020020DC4800108C
:1008900070B5012101432E4BCB1A2F2B28D8EFF333
:1008A0000583002B2BD0EFF3108C72B6294A126807
:1008B000002AFBD0BFF35F8F274A0400244D641B3E
:1008C00064416243120D54B2244A92689B00D2588C
:1008D0008A421BD00022032A32D853009B189B0067
:1008E0001B49CB189B795BB2A3421FD00132F2E7C0
:1008F000C7211B4B1B4A49001B4801F095FB922165
:100900001A4B184AFF31184801F08EFB134A9268BF
:100910001749D150174B1A7882711C70BFF35F8F43
:100920000C4B00221A608CF3108870BD0D00530030
:10093000991889006918FF268E710F4A8A80E9E7A5
:10094000D1210E4B074A4900074801F06DFBC04614
:100950003C020020240100D0AAAA000000ED00E023
:10096000E448001020490010144700100C49001002
:10097000CD010010DD06002001BDFFFF1849001069
:100980000022044B02E0044902C30132072AFAD9CB
:100990007047C04600E400E080808080024B9C46A7
:1009A00061448900016070474000003410B50400C4
:1009B000FFF7DCFD01002000FFF7F0FFFF232371AC
:1009C000BFF35F8F10BD10B50400FFF7CFFD01002E
:1009D0002000FFF7E3FFFF23237100236371BFF3C0
:1009E0005F8F10BD70B505000C00080000F04AFED6
:1009F0000949200000F08AFDFFF7B8FD074B9C462F
:100A00006044800068602C75D0231B061B786B75D2
:100A1000A400034BE55070BD290D001040000034C8
:100A2000AC0400200A4B1A68EFF3108172B6136809
:100A3000002BFCD0BFF35F8F054B1B68BFF35F8FAC
:100A400000221A6081F3108840BF00200021704707
:100A5000C006002010B5002922D003681B7B9942F4
:100A60001ED8174B9C466144090183689C4661442B
:100A70000C684968002A19D003681B7B9A4215D874
:100A800083680F488446624412019A1810685368BC
:100A9000020001208B4201D80ED00020C0B210BD50
:100AA000084B094A3C21094801F0BEFA054B064AA9
:100AB0003C21064801F0B8FAA242EFD8EDE7C04663
:100AC000FFFFFF0F904B0010D44D0010284B00107B
:100AD00010B500291ED0037B99421BD84B005B1830
:100AE000033B0468A4466344002919D0002A1DD0A2
:100AF000914221D0002A25D0047BA24222D804684A
:100B000050008018033820188170197800291FD1EF
:100B10001A7010BD104B114A6821114801F084FA77
:100B2000104B114A6F310E4801F07EFA0F4B0E4AFE
:100B300070210B4801F078FA0D4B0B4A71210848DF
:100B400001F072FA044B054A6821054801F06CFA7D
:100B500041701A70DDE7C046B44B0010404E0010E3
:100B6000D04B00104C4C00101C4E0010584C001084
:100B7000644C001070B506000D001400002914D05C
:100B8000002A14D0806873689847002806D0220095
:100B900029003000FFF79CFF280007E02A00210011
:100BA0003000FFF795FF200000E0100070BD080046
:100BB000FCE70000F0B583B00500009201930AAB9A
:100BC0001C780BAB1F78002C26D003685A7B94420C
:100BD00007D10123002B19D1002C3BD1200003B0F9
:100BE000F0BD002C0CD01A7B944209D81A6863001F
:100BF0001B19033BD3189B78002BEBD00123E9E7AB
:100C00003E4B3F4A68213F4801F00EFA3E4B3F4AB7
:100C100067213F4801F008FA03689C7B002CDBD079
:100C200012D01A7B94420FD862001219033A196845
:100C30008C46624451789973002900D1D9730023FE
:100C4000937053701370C7E72C4B2D4A68212D48C1
:100C500001F0EAF9002C3AD02B681B7B9C4236D875
:100C60002C4BE3181B01AA6894466344009A1A604F
:100C7000019A5A60089A9A60099ADA602E68002CE4
:100C80002BD030D0337B9C422DD863001B19033B03
:100C900032689446634400229A705A701A70717BCD
:100CA00022003000FFF766FF7073844200D095E7A2
:100CB000287D009A019B00F071FC061E01D0002FD8
:100CC00017D00C9B002B00D188E71E7086E7124BD3
:100CD000124A3C210E4801F0A7F9114B114AA521F7
:100CE000084801F0A1F9054B054A6821054801F0C3
:100CF0009BF92868210000F089FEE2E7B44B001060
:100D0000404E0010D04B00107C4C00104C4E001098
:100D1000284B0010FFFFFF0F904B0010D44D001028
:100D2000244B0010304E0010F0B5DE4657464E46BC
:100D30004546E0B58BB00990002308938200B54B7F
:100D4000D658370052E0B44BB44A3F21B44801F0C2
:100D50006BF9B44BB44A3C21B44801F065F9002961
:100D600001D1002869D10021404600F045FEA04293
:100D700019D12A686B6806920793AB689846EB68AE
:100D80009A464346002B14D0002C18D03B681B7B9E
:100D90009C4214D8631EFA68D35C08931B02184364
:100DA0003861002015E0A24BA24A8E219F4801F035
:100DB0003BF9A14B9F4A92219C4801F035F9994B90
:100DC0009E4A4121994801F02FF900239A469846FE
:100DD00000207B68BFF35F8F00221A6086F31088C3
:100DE0004346002B32D1002800D10CE100F04AFB31
:100DF00002000B1EA7DB00200021069007917868F7
:100E0000EFF3108672B601680029FCD0BFF35F8F44
:100E1000396888464C7B002CD7D09AD0097B8C420D
:100E200097D8874965182D01B9688C4665442868AC
:100E30006968801A9941002991DD2A686B680998D0
:100E400000F0ACFB00239A469846C2E7089B1B02C1
:100E50002343994651461800C04705000E007A68A2
:100E6000EFF3108B72B6136859424B41D9B2002B85
:100E7000F9D1BFF35F8F002E1EDB002E46DD3B69EC
:100E8000002B47D04B456DD100F0FCFA02000B1E41
:100E90006EDB52197341002B70DB002B72DB0021DB
:100EA0000491013103910294514601914146009110
:100EB0003800FFF77FFE4CE03B69002BDDD04B454F
:100EC00014D1069A079B521BB341002B14DB002B55
:100ED00016DB0021049101310391029451460191E6
:100EE000414600913800FFF765FE32E0554B514A0C
:100EF000A1214E4801F098F801225242524BE6E7F8
:100F0000454B464A3F21464801F08EF8002E01D15C
:100F1000002DB4D13B68002C50D05A7B944237D17D
:100F2000012100294AD1DA7B002A4DD19A7B002A7F
:100F300003D1DA7B002A5AD19C73DC73002C5CD07D
:100F40003B681B7B9C4258D8FA68013C135D013317
:100F5000135500233B617A68BFF35F8F13608BF3F7
:100F6000108843E7374B334AA421304801F05CF83E
:100F7000294B2A4A3F212A4801F056F801225242C1
:100F8000314B8AE7244B254A3F21254801F04CF894
:100F9000002C0DD01A7B94420AD862001219033A31
:100FA0001868844662449278002ABAD00121B8E7D2
:100FB000264B274A6821274801F036F8264B274A56
:100FC000F621244801F030F8002A0AD0197B8A4221
:100FD00007D851008A18033A19688C466244547045
:100FE000A4E71A4B1A4A68211A4801F01DF81C4B55
:100FF0001A4AFB21174801F017F80A4B0F4A412102
:101000000A4801F011F80BB0F0BCBB46B246A94645
:10101000A046F0BDAC040020244A0010A04D0010F2
:10102000404A0010904B0010D44D0010284B001087
:10103000A44C0010B84D0010BC4C0010F84D00102E
:10104000FFFFFF0FC84C0010FFFFFF7FB44B0010E5
:10105000404E0010D04B0010044D00100C4E0010FC
:10106000284D001010B50C4B5B68002B04D00A21F2
:101070000A48FFF793FC10BD074C2300084A1021D3
:10108000206800F0C9FB032000F0F0F903212000E4
:10109000FFF7A8FCEBE7C04684020020C006002052
:1010A000550A001010B5064B5B68002B01D00448B0
:1010B00010BD044B044A5E21044800F0B5FFC04651
:1010C000840200203C4D0010E04D0010284B001021
:1010D000F0B5DE4657464E464546E0B58BB08046F5
:1010E00016001F00149B9A46159B994616AB1B7859
:1010F0009B461F2302AA9446634400221A702BE0E9
:10110000002809D042461268127B904204D8421E41
:101110004146C9688A5C41E0404B414A412141480F
:1011200000F082FF07984CE0361BAF41002F07DB31
:10113000002F11DA3C4B3D4A3F213D4800F074FF3F
:10114000012676423B4FF3E7374B384A3F21384878
:1011500000F06AFF002F4FDB43465A68EFF310841C
:1011600072B6136859424B41D9B20791002BF8D19E
:10117000BFF35F8F1F3302AA944663440493002396
:10118000039302934B4601935346009332003B0076
:101190004046FFF70FFD031EB2D1020041464968E9
:1011A000BFF35F8F00250D6084F31088002B29D0DA
:1011B0001F2302A98C4663441B78002BB2D1120274
:1011C0001043002B20D05B46002B1DD04946D04752
:1011D00004000D0003000B431DD00029A4DB00F028
:1011E00051F906000F1EAFDB36196F41002FB1DA3F
:1011F000012676420F4FADE70B4B0C4A3F210C48BE
:1012000000F012FF012040420BB0F0BCBB46B246DA
:10121000A946A046F0BD0798F6E7C046904B0010DF
:10122000F84D0010284B0010244A0010A04D00106B
:10123000404A0010FFFFFF7FF8B50400002900D1ED
:1012400062E04268EFF3108572B61368584243417A
:10125000D8B2002BF9D1BFF35F8FCBB22268567B97
:10126000B3421BD10120002848D0206988422BD0EE
:10127000090AC9B2002B2ED02068007B83422AD8ED
:10128000581EE668305C88422BD000206368BFF3AC
:101290005F8F00221A6085F31088F8BD002B0DD0F7
:1012A000167BB3420AD85E00F618033E1768BC46A8
:1012B0006644B678002ED6D00120D4E7134B144AEA
:1012C0006821144800F0B0FE2C21134B134AFF3163
:1012D000134800F0A9FE134B134A4121104800F0B7
:1012E000A3FE1900100000F091FB0028CED1992137
:1012F0000E4B0A4A49000A4800F096FE23698B42C9
:10130000C4D100232361C1E70020C6E7B44B00101D
:10131000404E0010D04B0010604D0010884D001062
:10132000284B0010904B0010F84D0010844D001019
:1013300070B584B005000C00EFF30583002B1ED1BF
:10134000FFF7B0FE002302930193224B00932A0083
:101350002300FFF7BDFE061E23DD20BFFFF7A2FE20
:101360003100FFF769FF1C4B5B6A9C422DD81A4A7B
:10137000926AAA422CD29C4225D0012026E0164B2C
:101380005B6A994209D8144A926A824207D299420A
:1013900001D001201AE0002018E0002016E0012012
:1013A00014E00D4B5B6A9C4209D80B4A926AAA4230
:1013B00007D29C4201D0012008E0002006E0002076
:1013C00004E0012002E0002000E0002004B070BD35
:1013D0000120FBE7250A00100040054070B5EFF33F
:1013E00005801038EFF3108C72B61A4B1B68002B77
:1013F000FBD0BFF35F8F01221300834016494B637C
:1014000016490B60164909780C00C440224214D0DA
:10141000114A546A8200134D5259944206D38200F5
:10142000114C125999430E4B197007E00A4A031DDB
:101430009B0099589950002200E00022BFF35F8F73
:10144000044B002119608CF31088002A00D09047CB
:1014500070BDC046280100D0004005403C700540EA
:10146000DE060020C40600202404002010B5010080
:10147000024A0348FFF750F810BDC046644E001002
:10148000DC060020044B5B6A034A906A1900536A29
:101490009942F9D17047C04600400540084B5B6A4D
:1014A00001E0074B5B6A8B42FBD301E0044B5B6AB4
:1014B0008B4203D1024B9B6A8342F7D37047C046ED
:1014C0000040054070B504000D00FFF7DBFF02008F
:1014D0000B0020002900801859418B4202D804D10A
:1014E000824202D901204042C117002902DBFFF7E6
:1014F000D5FF70BD024B034A3F21034800F094FD25
:10150000244A00103C4F0010404A001070B50400FF
:101510000D00EFF3108672B61B4B1B68002BFBD03F
:10152000BFF35F8F002D1CD02000FFF7A9F8174BE9
:1015300083420BD019002000FFF7AAF801212000F8
:10154000FFF796F80123A340114A1360A400114B42
:10155000E550BFF35F8F0C4B00221A6086F31088B2
:1015600070BDA2000B4B0021D1500122A2400A49BC
:101570000B7893430B7005492000FFF7B3F8002167
:101580002000FFF775F8E4E7280100D0DD13001014
:101590003860054024040020DE060020F0B5DE4659
:1015A00000B584B00400150001921E000293FFF7FD
:1015B00069FF03958E4202D84ED185424CD9EFF394
:1015C000108B72B6274B1B68002BFBD0BFF35F8FCD
:1015D000254A17780125A540EBB23B431370234BF6
:1015E0005D63221D92000199D150A200204902980A
:1015F00050501B6A2B4212D11C4B1B6C2B4208D043
:101600000020BFF35F8F174B00221A608BF3108806
:1016100023E0184B184AC521184800F005FDFFF7D4
:1016200031FF8E4214D802D1039B834210D80E4B57
:101630001B78BB420ED00D4B1D625D631F20044022
:101640000123A3400E4A1360074B1F701E38D8E7D2
:101650000020D6E70120D4E7012004B080BCBB46BF
:10166000F0BDC046280100D0DE0600200040054045
:10167000C4060020884E0010204F0010AC4E001011
:1016800080E200E0EFF3108C72B60B4B1B68002B6E
:10169000FBD0BFF35F8F01238340084A13620849E0
:1016A0000A789A430A70BFF35F8F034B00221A60D7
:1016B0008CF310887047C046280100D000400540D8
:1016C000DE06002010B500291ED0037B99421BD8EE
:1016D0004B005B18033B0468A4466344002919D0FF
:1016E000002A1DD0914221D0002A25D0047BA2429D
:1016F00022D80468500080180338201881701978A7
:1017000000291FD11A7010BD104B114A68211148D1
:1017100000F08AFC104B114A6F310E4800F084FC37
:101720000F4B0E4A70210B4800F07EFC0D4B0B4A0C
:101730007121084800F078FC044B054A68210548EF
:1017400000F072FC41701A70DDE7C046B44B001027
:1017500070500010D04B00104C4C00105C5000102A
:10176000584C0010644C001070B506000D001400B9
:10177000002914D0002A14D0806873689847002884
:1017800006D0220029003000FFF79CFF280007E068
:101790002A0021003000FFF795FF200000E0100034
:1017A00070BD0800FCE7000010B50023437301334F
:1017B0008373037BC3730123027B9A4214D9002BEA
:1017C0000CD0027B934209D85A00D218033A016820
:1017D0008C4662440133DBB25370EDE70B4B0C4A8D
:1017E00068210C4800F020FC002A09D0924207D85A
:1017F000016853009A18033A8A180023537010BDE9
:10180000024B034A6821034800F00EFCB44B001061
:1018100070500010D04B001010B50173426083600F
:10182000FFF7C2FF10BD000070B50400081E00D114
:1018300070BD002934D0237B994231D84B005B180E
:10184000033B2268944663445A78002AF0D02DD096
:10185000237B9A422AD853009B18033B21688C466D
:1018600063445D7800215970002825D0237B98427D
:1018700022D843001B18033B21688C466344002197
:10188000597001002000FFF76FFF060029002000BB
:10189000FFF7CAFF020031002000FFF765FFC7E72E
:1018A000084B094A6821094800F0BEFB054B064A6F
:1018B0006821064800F0B8FB024B034A6821034840
:1018C00000F0B2FBB44B001070500010D04B001071
:1018D00070B505000C00160000292FD034D0037B12
:1018E000994231D84B005B18033B0268944663442D
:1018F0005A78002A2ED19A78002A31D11978FFF728
:1019000093FF0300002E0AD0EA7B002A2ED1AA7B87
:10191000002A03D1EA7B002A3BD1AC73EC73002B85
:101920003DD1002C4FD02B7B9C424CD82B686100C2
:101930000C19033C1C190023637070BD254B264A0B
:101940003821264800F070FB254B264A682126489E
:1019500000F06AFB254B204A3A21204800F064FB46
:10196000234B1D4A3B211D4800F05EFB002A0AD094
:10197000297B8A4207D851008A18033A29688C4685
:1019800062445470C3E7164B164A6821164800F0AB
:101990004BFB184B104A4221104800F045FB002B2E
:1019A0000BD02A7B934208D843001B18033B2A68BC
:1019B0009446634400229A70B3E7094B094A6821B0
:1019C000094800F031FB064B064A6821064800F042
:1019D0002BFBC046544F0010485000105C4F0010C5
:1019E000B44B001070500010D04B0010C44F0010CA
:1019F000EC4F0010284D001070B504000A00457B24
:101A00002900FFF765FF6073280070BD70B5040002
:101A1000002967D0437B8B420ED0002911D0037B75
:101A200099420ED84B005B18033B0268D0188378AC
:101A3000002B0CD1002056E00121FFF7DDFF012033
:101A400051E0294B294A6821294800F0EDFA002B82
:101A500020D0227B93421DD85A00D318033B226822
:101A6000D2182568EB5C8B421AD0002B1BD0227B4E
:101A7000934218D85A00D318033B2268D2185378DF
:101A80008B4216D0002BF0D11A4B1B4A6B211B48FE
:101A900000F0CAFA144B154A6821154800F0C4FA40
:101AA0004378137007E0104B104A6821104800F08B
:101AB000BBFA4378537000238370437001222000E7
:101AC000FFF706FF0200617B814205D02000FFF78F
:101AD0004BFE6073012006E0094B074A712107485D
:101AE00000F0A2FA002070BDB44B0010705000103E
:101AF000D04B001018490010305000105C4F0010FF
:101B00001050001070B5046BE30701D4200070BDC5
:101B100002003032C0239B0113430A4A1A60456A0F
:101B2000826AAD01AD18AD02062000F0C5F9064984
:101B300001F028FC0100280001F024FC0021FFF73F
:101B4000C1FCE3E7010300004E0E000070B5040085
:101B50000E001500FFF7D6FF22002C32E16A4E403E
:101B6000354080235B0113431D60206370BD00007E
:101B700070B505000C00062000F09EF9C0002100A1
:101B800001F000FCC60908D00E4B9E4216D87F23F8
:101B9000184001303400460800E001246C62AE6257
:101BA000002200212800FFF7D1FF062000F084F971
:101BB0008000A101891901F0E5FB70BD0026024CEF
:101BC000ECE7C046FEFF0000FFFF000010B505393E
:101BD0004901013AD2001143002B09D002220A43E5
:101BE000012B07D0002111436E22FFF7AFFF10BD7C
:101BF0000022F4E70421F6E710B5002900D01021F7
:101C00001022FFF7A3FF10BD002909D00A22064BBE
:101C10009C466044434258414000044BC2527047C6
:101C200080225200F3E7C0460080FCBFD4060020AB
:101C300070B505000C00062000F03EF9061E27D006
:101C4000164B9D4226D08022D203154B1A60154BAD
:101C50001A60154B9B6811009943FAD100212800A6
:101C6000FFF7D2FF21002800FFF782FF06000023C4
:101C7000012208212800FFF7A9FF2A002C32802327
:101C80009B01134310221A60084B2B630323AB64A0
:101C9000300070BD80221204D7E7C04600800340A8
:101CA00000E0004000F0004000C0004001030000E0
:101CB000F8B5DE4657464E464546E0B505000F00EE
:101CC00092460A9A934250D31A0E91461E020A9ADD
:101CD00000233000494601F093FB80466C006419F4
:101CE000A400304B9C4664446368834200D2606029
:101CF0002B1FDBB29B46012B3DD9C0239B01234305
:101D0000802212011A60AB00274A9958002907D097
:101D1000506901F037FB431C5800C0180338FDD24E
:101D200053465A0123685A40E0231A4080235B013E
:101D300023431A605A46012A28D980239B01234352
:101D4000802212011A60434663604246002330003D
:101D5000494601F055FBAD00134B58510120F0BC32
:101D6000BB46B246A946A046F8BD104B104A3321E7
:101D7000104800F059F9012FBFD1C0239B01234324
:101D800003221A60A368DB07FCD5C9E72168794004
:101D900003220A401A60A2680123BB401342FAD012
:101DA000CBE7C046008000403C0400207C5000107F
:101DB000045100109050001030B583B00C2000F09A
:101DC00011F9FEF789FB00280DD0002304E09900EB
:101DD0002D4A2E4888500133092BF8D92A4B2C4A1A
:101DE0005A6203B030BD2B4B00229A6700F002F913
:101DF000294B01221A60274B5B6C012BFBD1274B2F
:101E000003221A60234B9B6B012BFBD10133009300
:101E10000433234A0121234800F054F8052300939A
:101E2000214A0121214800F04DF8214B0093002266
:101E300002210420FFF73CFF1E4D00952B000022DD
:101E400001210520FFF734FF104C009423000022ED
:101E500000210720FFF72CFF00942300002200211F
:101E60000820FFF725FF0A4B0093230000220021E2
:101E70000920FFF71DFF00952B00002200210620FE
:101E8000FFF716FFADE7C0463C040020006CDC0203
:101E90001BB70000008000403CB0004030B0004064
:101EA000002F685900800240008C864700C0024025
:101EB000001BB700405973078000014BC0587047A2
:101EC0003C040020F0B5C64600B504000E00170023
:101ED0001D00374801F056FA8046364BFA18364B4B
:101EE0009A4239D80100380001F04CFA0200103A49
:101EF00098235B009A4235D86B1E062B38D8069B78
:101F0000013B062B34D83F09474537D32D04069BA8
:101F10001A0315432368002B36DB284B9C4244D020
:101F200080225201264B1A60264B1A60264B9B6872
:101F300011009943FAD12660A060231DC0229201AE
:101F40001A43212313602368002BFCDAE560082381
:101F5000136080BCB846F0BD1C4B1D4A11211D48C2
:101F600000F062F81C4B1A4A19211A4800F05CF87C
:101F70001A4B174A1C21174800F056F8184B144A00
:101F80002321144800F050F822683F231340B34245
:101F9000C3D1A3681B051B0D8342BED1E368EE22AB
:101FA000D2021340AB42B8D1D3E780229201B9E705
:101FB000001BB70080E84BD380F8A93200C0024074
:101FC00000E0004000F0004000C00040145100104C
:101FD0006852001074510010E451001000520010BB
:101FE0004C52001080239B000343014AD362704788
:101FF00000800540064BAA2212011A602F22DA60E7
:10200000044B054A1A60024B5B68002BFBDA7047F1
:10201000004002400060024000B0FA0000BEFDE750
:1020200010B5FFF7FBFF000010B582B00C001900DF
:10203000002A0CD0084B002A0BD0019200932300F9
:102040000200064802F0D2F90120FFF7E7FF044B37
:10205000F1E7034AF1E7C0467452001084520010C1
:10206000E046001070B52B4B2B4A1A602B4B2C4AC4
:102070001A602C4B9A682A4B9343FAD12A4C01E000
:1020800008CC9847294B9C42FAD3FFF795FE234B87
:10209000274A1A60234B9B68DB43DB01FAD1254BAF
:1020A00040229A675A671A67DA66234C09E0234B85
:1020B000234A87212348FFF7B7FF2000FEF776FC6D
:1020C0000834214B9C4209D22368002BF5D0012B08
:1020D000EDD12000FEF777FC0834F2E71B4CA16835
:1020E0001B4DC022280002F029F8A560EFF30583FC
:1020F000002B00D000BEFEF729FAFEF741FCFEF7E8
:10210000B1FF144C01E008CC9847134B9C42FAD322
:1021100070BDC04600E00040BFCDFBFE00F00040B7
:10212000FE7F3C0000C00040F002002000030020C1
:10213000FFFFFF0100F00140E8020020B452001050
:102140005C530010D4520010F002002000ED00E0BB
:102150000000002000030020040300200FB400B59D
:1021600083B0084802F012F9049B002B07D005A9A0
:102170000191180002F01AF9034802F007F9012052
:10218000FFF74CFF4853001058530010704710B52C
:10219000002802D00B684968984710BD0100002054
:1021A00007E083001B185B00501C08601078C01803
:1021B00030380A681378303BDBB2092BF1D970470D
:1021C000F0B5DE4657464E464546E0B583B09346E9
:1021D0001F000C9B9A460D9C0E9B99460F9B9B07DC
:1021E00003D0B8460F00060022E00192A3468846BD
:1021F0004E46B9460700B44207D2551C4B464146ED
:102200002020B84701342A00F5E73D004F465C46E0
:10221000019B9B46B1464646B84637002E0007E074
:10222000013C551C5346185D43463900B0472A000F
:10223000002CF5D135003E0047460F9B9B0707D485
:10224000100003B0F0BCBB46B246A946A046F0BDA4
:10225000B0464E46B9462F005D46531BB342EFD2FF
:10226000541C4B4641462020B8472200F5E7F0B504
:10227000CE46474680B585B0944698460C9D0D9C49
:102280000EAB1B789946109A119B129EB7071CD46F
:10229000002B0CD0F7070AD54F46002F02D10C3780
:1022A000374204D0013B02E030272F5501349442DD
:1022B00001D21F2CF8D9F70707D59C4205D21F2C55
:1022C00003D830272F550134F5E7F70615D57705E4
:1022D00005D4002C03D0944224D09C4222D00F9AE3
:1022E000102A2BD00F9A102A30D00F9A022A35D0FC
:1022F0001F2C02D830222A5501341F2C05D84A46FB
:10230000002A31D02D222A550134039602930194DC
:10231000009543466246FFF753FF05B0C0BCB9467F
:10232000B046F0BD621E012C06D00F9F102F01D0C9
:102330001400D4E7023CD2E71400D0E7B206D1D4AF
:102340001F2CCFD878222A550134D1E7B206CCD53C
:102350001F2CCAD858222A550134C9E71F2CC7D8C8
:1023600060322A550134C3E7720703D52B222A5560
:102370000134CAE73207C8D520222A550134C4E700
:10238000F0B5DE4657464E464546E0B593B0814629
:102390008A46089209931CAB10CB1B789B461E9D66
:1023A000219B9846002C03D1102342469A43904625
:1023B0008023DB0046461E4042461A4212D0002CC3
:1023C00022D000260EE03033D9B2771C0AAB9955E3
:1023D0002900200000F0D6FFAC4216D31F2F14D8DE
:1023E0003E0004002900200000F0CCFFCBB2092BF6
:1023F000E9D94246920605D54121C918C9B20A3920
:10240000C9B2E2E76121F8E7270043460693209B23
:1024100005931F9B049303955B46029301970AABB8
:102420000093099B089A51464846FFF720FF13B0D6
:10243000F0BCBB46B246A946A046F0BDF0B5DE46AC
:1024400057464E464546E0B595B0089009910A9228
:102450000B931E9E1F9C20AB1B789B46229B99468C
:10246000239D269B9A463300234303D110335246C3
:102470009A4392468023DB0057461F4052461A4239
:1024800019D0330023432DD0002714E03033DAB2C3
:102490007B1C98460CABDA554A462B0030002100D5
:1024A00000F0AEFFA5421FD819D043461F2B1BD802
:1024B000474606000C004A462B003000210000F081
:1024C0009FFFD3B2092BE1D95246920605D541228E
:1024D000D218D2B20A3AD2B2DAE76122F8E7B145AD
:1024E000E3D901E00023984653460693259B0593C4
:1024F000249B04934B4603935B460293434601930C
:102500000CAB00930B9B0A9A09990898FFF7AFFE52
:1025100015B0F0BCBB46B246A946A046F0BD0000CF
:10252000F0B5DE4657464E464546E0B591B0834687
:102530008A460C9298461A9C08941B9D0995220085
:102540002B002000290001F0E6F9002800D0E5E08A
:1025500001225242D74B2000290001F0D7F9002870
:1025600000D0DBE001225242D34B2000290001F0D1
:10257000B7F9002800D0D1E000220023089E3000E7
:10258000099D290001F0ACF9002800D0DDE0089891
:102590000999069007918023DB001E9A1A400D923C
:1025A0001E9A1A4201D106231C930698079904002B
:1025B0000D000A000600024300D1D1E0080D4005DD
:1025C000400DBE4CA44660440A03120BBC4B13439F
:1025D0001F0001F0B3F9BB4ABB4B01F03EF9BB4A07
:1025E000BB4B01F013F904000D000022B94B300081
:1025F000390001F002F9B84AB84B01F02EF9020097
:102600000B002000290001F001F901F0AFF981462B
:1026100001F094F904000D00B14AB24B01F01DF92C
:102620000022B14B01F0F2F801F0A0F90600AF4A28
:10263000AF4B2000290001F010F904000D0030001C
:1026400001F07CF9AB4AAC4B01F007F902000B003A
:102650002000290001F0D1F804000D0002000B0059
:1026600001F0FBF80A900B91A44BF31800261F050C
:1026700022002B002000290001F0C8F80E900F91D5
:1026800022002B0000208021C90501F0B6F80400CB
:102690000D0000229A4B0A980B9901F0C0F8002215
:1026A000984B01F0B3F802000B000A980B9901F067
:1026B000B6F80022944B01F0A9F802000B000A982A
:1026C0000B9901F0ACF802000B002000290001F08A
:1026D0009DF802000B000E980F9901F0A0F800225F
:1026E000774B01F093F832003B0001F0B6F806009A
:1026F0000F0004000D00069A079B01F007F900285F
:1027000030D001235B429C46E14400227D4B3000E7
:10271000390001F084F804000D0023E01E9B0493AF
:102720001D9B03931C9B0293089A099B00920193A3
:1027300043460C9A5146584600F0FCF811B0F0BCE4
:10274000BB46B246A946A046F0BD0023002406932E
:102750000794069680231B069C46654407951AE756
:10276000002399464B466333C62B1ED804261E9B76
:102770001B0526D52B0023430FD0644A644B0698D3
:10278000079901F0BBF8002879D00022614B069828
:10279000079901F0A5F8002871D01C9B4B4506DD78
:1027A0004A46981A431E1C9303E00526DFE70023E0
:1027B0001C938023DB001E9A1A431E9200260023DE
:1027C00099461D9B9E4264D29F1B02231E9A1A406B
:1027D0000A921E9A134202D0002E00D000274B46C8
:1027E000002B07D022002B000698079901F017F85C
:1027F00006900791002200230898099901F070F8CB
:10280000002848D1444B1E9A1340049303971C9B05
:102810000293069B079C0093019443460C9A5146F1
:10282000584600F087F8002E00D187E71E9B9B06D4
:102830003DD54525441C4346020051462800D84753
:102840004B46DA179B18534005220592013E049629
:10285000002203920A3202924A46D00F019000935E
:102860004346220051465846FFF78AFD0A9B002B3B
:1028700000D163E702005F460C9E1D9D54E01C9B47
:10288000002B9ED00D9B002B9BD01C9B013B1C93CF
:1028900097E7002799E7069C079D220029008020E2
:1028A0000006844661440B0006920793AAE765255B
:1028B000C0E7C046FFFFEF7FFFFFEFFF01FCFFFF18
:1028C0000000F03FFB799F501344D33FB3C8608BA7
:1028D000288AC63F0000F83F61436F63A787D23F55
:1028E00071A379094F930A400000E03F1655B5BB2C
:1028F000B16B0240EF39FAFE422EE63FFF030000C3
:1029000000002C4000002440000018402D431CEB28
:10291000E2361A3F80842E41FFF7FFFF541C4346E6
:1029200051462020B8472200931BAB42F6D310003B
:1029300004E7C046F0B5DE4657464E464546E0B58C
:1029400095B00690079193469946209F1E9A1F9B2B
:102950001000190000F0DFFF002831D1012252429F
:10296000BF4B1E981F9900F0BBFF002837D10122F2
:102970005242BC4B1E981F9900F0C8FF00283DD161
:102980000022B94B1E981F9900F0C0FF002850D1BB
:102990000022B64B1E981F9900F0A2FF002848D1D4
:1029A000002200231E981F9900F09AFF002850D1A2
:1029B00000239846229B5B0500D4B6E0002458E033
:1029C000229B0393219B029303230193A84B009323
:1029D0004B465A4607990698FFF7F2FB0EE1229BF9
:1029E0000393219B029304230193A24B00934B4634
:1029F0005A4607990698FFF7E3FBFFE00423229A63
:102A00001A4022990B4210D09B4B002A0FD004226F
:102A10002299039121990291019200934B465A46C3
:102A200007990698FFF7CCFBE8E0944BEDE703220B
:102A3000EEE7229B0493219B039302971E9B1F9C0E
:102A4000009301944B465A4607990698FFF768FD94
:102A5000D4E01E9A1F9B0020002100F0CEFE1E90A5
:102A60001F9101239846A5E70CAB30221A55013F70
:102A700001341F2C01D8092FF6D81E981F9900F099
:102A800075FF050000F05AFF02000B001E981F9909
:102A900000F0B3FEFA007A4B9B181A685B680A9242
:102AA0000B9300F0DAFE0890099100F083FF060016
:102AB00000F040FF02000B000898099900F09DFE0D
:102AC0000890099100226F4B00F020FF00282ED0C3
:102AD0000136300000F02EFF02000B000A980B991F
:102AE00000F004FF002801D001350026002F2CD172
:102AF000280000F023FF02000B001E981F9900F031
:102B00007CFE06000F0000225E4B00F0E9FE00286C
:102B100046D100225B4B3000390000F0F7FE002860
:102B20003ED1EB073CD501353AE0062746E70022C7
:102B3000544B0898099900F0D3FE0028D6D1002EF6
:102B400001D0F307D2D50136D0E7AA461F2C11D801
:102B5000013F0A21300000F015FC651C30310CAB40
:102B600019550A21300000F00DFC092E0ED906007F
:102B70002C00EBE755461F2C0CD87B1E002F09D0EC
:102B80000CAA302111551F000134F4E72B005546E3
:102B90001C00F0E71F2C03D80CAB2E221A55013471
:102BA0001F2C10D80A21280000F0C4FB661C30310D
:102BB0000CAB19550A21280000F0BCFB051E01D002
:102BC0003400EDE734000323229A1340012B1CD07C
:102BD0001F2C06D84346002B32D00CAB2D221A55A1
:102BE0000134229B0393219B029301940CAB00932D
:102BF0004B465A4607990698FFF7E2FA15B0F0BC23
:102C0000BB46B246A946A046F0BD219B002B13D07F
:102C10004346002B02D10C3313420FD0219B013BC2
:102C20002193190003E00CAB30221A5501348C4279
:102C3000CED21F2CF7D9CBE72199F8E72199F6E7F7
:102C4000229B5B0704D50CAB2B221A550134C8E735
:102C5000229B1B07C5D50CAB20221A550134C0E7B7
:102C6000FFFFEFFFFFFFEF7F65CDCD4165CDCDC10C
:102C7000785300107C530010705300106C530010F8
:102C8000685500100000E03FF0B5DE4657464E465E
:102C90004546E0B593B082468B4690461193002995
:102CA00000D1EBE200275546119B1878002800D18F
:102CB000E7E2252809D07C1C43463A005946A8473C
:102CC000119B013311932700EEE701331193002488
:102CD000119A11780B00203BD8B2102803D883003A
:102CE000D048C3589F460B00303BDBB2092B2CD990
:102CF0002A292FD000230A93119B1A782E2A39D023
:102D000000239A46119A1378683BD9B2122976D8D3
:102D10008B00C549CB589F4601231C4301321192B9
:102D2000D6E702231C4301321192D1E704231C434E
:102D300001321192CCE708231C4301321192C7E7FC
:102D400010231C4301321192C2E711A8FFF726FAA3
:102D50000A90D1E71C9B1A1D1C921868002804DBFE
:102D60000A90119B01331193C6E702231C4343428F
:102D70000A93F6E78022D20014435A1C11925A7823
:102D80001300303BDBB2092B04D92A2A07D00023D9
:102D90009A46B7E711A8FFF701FA8246B2E71C9BF3
:102DA0001A1D1C921868002804DB8246119B01330F
:102DB0001193A7E70020F8E780235B002343511C11
:102DC000119152786C2A01D01C0018E0C0239B009E
:102DD0001C430131119112E080232343511C1191B6
:102DE0005278682A01D01C0009E0C0231C4301313D
:102DF000119104E080235B001C4301321192119B6E
:102E000018780300253BDAB2532A00D92CE293004C
:102E1000864AD3589F4680239B001C43013211925F
:102E2000EDE780235B001C4301321192E7E778282D
:102E300009D0582838D06F2838D0622838D01023CD
:102E40009C430A2600E01026582833D0692803D076
:102E5000642801D00C229443630501D501229443D8
:102E600069282AD0642828D0A30500D59FE0E3056F
:102E700000D5B8E0630600D4CAE01C9A111D1C916D
:102E80001168FF220A4005940A9B0493534603935A
:102E9000029600230193009243463A0059462800C7
:102EA000FFF76EFA070027E01026CDE70826CBE7EC
:102EB0000226C9E720221443C8E7A30520D4E3056E
:102EC00050D4630666D51C9A111D1C911168FF220F
:102ED0000A40D317D118594005940A9B04935346CE
:102EE00003930296D20F0192009143463A0059464D
:102EF0002800FFF745FA0700119B01331193D3E631
:102F00001C9BDA1D07218A43110008311C911168AE
:102F100053689C46DB170C930D930C9A0D9B100085
:102F200048400E90624653400F930E980F990C9AAA
:102F30000D9B801A99410E900F9108940A9B07935C
:102F4000534606930496002305936346DA0F0292D4
:102F50000090019143463A0059462800FFF76EFA67
:102F60000700C9E71C9A111D1C911268D317D118CC
:102F7000594005940A9B0493534603930296D20F3B
:102F80000192009143463A0059462800FFF7F8F9AC
:102F90000700B1E7230605D51C9A111D1C910023DB
:102FA000D25E96E71C9A111D1C91126891E71C9B3A
:102FB000DA1D07218A43110008311C9108940A9BED
:102FC00007935346069304960023059302931368D0
:102FD00054680093019443463A0059462800FFF78D
:102FE0002DFA070088E71C9A111D1C9105940A9B75
:102FF00004935346039302960023019313680093AE
:1030000043463A0059462800FFF7BAF9070073E72C
:1030100023060DD51C9A111D1C9112681204120C66
:1030200031E7C04684530010C853001014540010F8
:103030001C9A111D1C91126825E746281AD01C9B6A
:103040000733072293431A0008321C9204940A9A09
:103050000392524602925C681B68009301944346B7
:103060003A0059462800FFF765FC0700119B013321
:10307000119319E620231C43E1E7672801D0472874
:1030800002D180231B011C43452801D0472801D1D0
:1030900020231C431C9B0733072293431A0008324A
:1030A0001C9204940A9A0392524602925C681B682E
:1030B0000093019443463A0059462800FFF730FA3E
:1030C0000700119B01331193EEE502231A00224001
:1030D000924623421FD001241C9B1A1D1C927A1C6D
:1030E0009146187843463A005946A8475346002B64
:1030F00016D1119B013311934F46D5E5561C43461B
:1031000059462020B847230032005C1C9D42F5D868
:103110003D001700E0E701233A002F000A9DF4E785
:103120004A46A9460A9D06E0571C434659462020B8
:10313000C84734003A00661CA542F5D84D46914672
:10314000D7E71C9B1A1D1C921B6899465346002BFF
:1031500000D1013B4E4601E0013613003278002ACF
:1031600002D05A1E002BF7D14B46F21A1092802340
:10317000DB0026001E401C4203D0524501D95346B5
:10318000109302231A0022400B92234205D03A00EA
:1031900037004C46A946554620E03A00109B5F4652
:1031A000B3462E0006E0551C434639002020B047A8
:1031B00023002A005C1C0A999942F4D835005E4627
:1031C000BB46109437004C46A946554606E01D0004
:1031D0000134561C43465946C8473200207800281F
:1031E00004D0002FF4D06B1E002DF0D117004D46F7
:1031F0000B9B002B03D1119B0133119354E50A9FC4
:10320000109B06E0561C434659462020A847230041
:1032100032005C1C9F42F5D81700ECE721231C43C9
:103220001C9B1A1D1C921B68009305940823049391
:1032300053460393102302930023019343463A001D
:1032400059462800FFF79CF80700119B01331193A2
:103250002AE57C1C43463A0059462520A847119B85
:103260000133119327001FE57C1C43463A00594661
:10327000A847119B01331193270015E50A4B9A4685
:1032800010E5AA46474502D343465A1E00E03A00DD
:10329000434659460020D047380013B0F0BCBB4627
:1032A000B246A946A046F0BD8D21001000B585B0FC
:1032B000029003910121009313004A4202A902489F
:1032C000FFF7E2FC05B000BD8F210010014804218A
:1032D000014B1847B0020020FD32001010B501006C
:1032E00018231B8814221088984710BD10B50100C0
:1032F00018231B8816221088984710BDF0B5C646C3
:1033000000B507000E0000250123984600E00135B6
:10331000B5420AD2AC003C192068FFF7DFFF2060FD
:103320000028F4D100239846F1E7404680BCB84617
:10333000F0BD0000124A936F9B0815D29066D166CB
:10334000002905D0FFE7FFE7FFE7516F106F7047D7
:1033500004B580210906C2175140002800D0C84397
:1033600001F0A2F9002104BDF0B5146E556E576F3F
:10337000166FFFF7E3FF1466556657671667F0BDD3
:10338000000000D0114A936F9B0813D2106651665B
:10339000002905D0FFE7FFE7FFE7516F106F704787
:1033A00004B5002801D00020C04301F07DF90021C0
:1033B00004BDC046F0B5146E556E576F166FFFF71B
:1033C000E5FF1466556657671667F0BD000000D02C
:1033D00094464A4A926F9208624601D228E0C0465B
:1033E000F0B5464E346E756E776F366F00F020F88C
:1033F0009446424A14665566576716676246F0BDA2
:1034000094463E4A926F9208624601D254E0C0460A
:10341000F0B53A4E346E756E776F366F00F04CF83B
:103420009446364A14665566576716676246F0BD7D
:10343000002B24DB11D000293EDA00B5C9434042FD
:1034400000D1013100F038F8C943404200D10131C8
:10345000DB43524200D1013300BD002AEBD10028EA
:1034600001D1002905D00020C90FC90701D1C043EF
:10347000410800B501F010F90022002300BD00B59D
:1034800000290ADBDB43524200D1013300F014F87B
:10349000C943404200D1013100BDC943404200D17F
:1034A0000131DB43524200D1013300F005F8DB4328
:1034B000524200D1013300BD002923D1002B18D185
:1034C000002A0CD0BC460D4F38667A6600210023D6
:1034D000FFE7FFE7FFE77A6F386F6746704700281E
:1034E00001D00748010000B501F0D6F80022002302
:1034F00000BD02000B00002000217047000000D03A
:10350000FFFFFFFF002B00D0BFE0130C28D1002AE3
:10351000E7D080B4114F39667A66FFE7FFE730B431
:10352000040C7B6F396F1B0423433B667A66FFE70D
:10353000FFE7FFE7C04684B27B6F3D6F1B04234368
:103540003B667A66FFE7FFE7C04600232C042D0C9C
:103550007A6F386F00196941B0BC7047000000D025
:10356000F0B594460025140E01D112020835140F4F
:1035700001D112010435940F01D192000235D40F0C
:1035800001D152000135D40B0134254F7C66254C06
:103590003C660E0C93B2FFE7FFE7FFE73C6F664324
:1035A000360C7703BE467343DF0B5B04C01AB94188
:1035B000130C7343DB18C91ACE086643360CB644A5
:1035C00093B273431F0F1B01C01AB941130C73430D
:1035D0001F0B1B05C01AB941860D8F023E4366437F
:1035E000360C092D24DB520A7243801A7703460AEF
:1035F0006643360C16235B1BDE40DF40BF19644672
:103600006643821B7046043506330100D940A8404A
:10361000C01900D30131A24206D20023F0BD000040
:10362000000000D0FFFFFFFF121B0130F3D3F1E7D2
:1036300009277F1BFE406446A2B27243801A00D263
:103640000139220C7243130C1204821A99410B00A7
:103650007046043513370100F940A840801900D3A3
:103660000131002B02D1A2420AD2F0BD013000D3B9
:103670000131121BFAD2013BF8D1A24200D2F0BDB7
:10368000013000D30131121BF7E7F0B51C0C00D05C
:1036900080E00CB400251C0A04D11B02160E334333
:1036A000120208351C0B04D11B01160F3343120103
:1036B00004359C0B04D19B00960F334392000235D6
:1036C000DC0B02D192185B4101351C009718644154
:1036D0000134464F7C66464C3C660E0CFFE7FFE724
:1036E000FFE7C0463C6F6643360C7703BE4697B291
:1036F0007743C01B00D20139C01B00D201399FB2F1
:103700007743C91BC91B170C77437E04FF0B801B33
:10371000B941CE086643360C0C2D33DBB644120B90
:103720001F053A431B0B97B27743C01B00D20139E8
:103730009FB27743C91B170C77433E043F0C801B95
:10374000B941860D8F023E43664329277F1BFE4009
:103750000C3D7746AF40BF1930BCA2B2ABB272434A
:103760007343801A9941220C7243130C1204801A7D
:10377000994102000B000137001BA941F9D2781EC4
:103780000021F0BD0C277F1BFE4077467F0BAF402A
:10379000FF19E0E700245D1C07D0144F7D663966F1
:1037A000FFE7FFE7FFE7FFE73C6F95B29EB2654397
:1037B0006643401BB141150C1E0C6543664336043D
:1037C0002F0C3E432D04401BB141994204D202000C
:1037D0000B0020000021F0BD01D19042F7D3801AE8
:1037E000994101349942F2D3F6E70000000000D07D
:1037F000FFFFFFFF48404140484018B41B4B5B6847
:10380000FC46019308BD04DFCF3A001018B4174BF3
:103810001B68FC46019308BD00DFD93A00109446AE
:10382000134A926F920809D2624618B40F4BDB68B4
:10383000FC46019308BD0CDF913D00100C4AF0B529
:10384000146E556E576F166F6246FFF7EEFF084A0B
:103850001466556657671667F0BD18B4034B9B682E
:10386000FC46019308BD08DF353C0010BC04002075
:10387000000000D0FFB550404240504059404B40FE
:10388000594000E0FFB5154F4C00640D03D0BC4219
:1038900004D10C0314D80020090D09055C00640D47
:1038A00003D0BC4204D11C030AD800221B0D1B0507
:1038B00001264B4009D44B4003D58B4200D18242B4
:1038C000FFBD9942FCD19042FFBD0B43DB1803437F
:1038D0001343F5D0C9434918FFBD0000FF0700009E
:1038E00000B5FFF7CFFF804100BDC04600B5FFF730
:1038F000C9FF01D9002000BD012000BD00B5FFF7C0
:10390000B9FF01D9002000BD012000BD00B5FFF7BF
:10391000B1FF804100BD012040054A00121804D8C3
:103920005A00121801D8002070470120704700206B
:10393000704700000021002805D17047C11748409A
:10394000401AFAD0C90713B5064B1B6898470CBC40
:10395000441CA2401005120B0349091B0905194319
:10396000114310BDBC0500201F04000010B54C0021
:10397000620D8023D218DB00D21A5B057E2A10DD8F
:103980009E3A13DACC170903490819435242D14031
:10399000640001341532202A05DAD0400843604320
:1039A00010BD002010BD0846604310BDC80FC018F0
:1039B000013810BD18B4044B5B6AFC46019308BD86
:1039C00024DF413F00100000BC04002070B5132329
:1039D0001C78012C14D0012C14DC022C02DC1F4AB0
:1039E0001F4B9A641F48FFF779FC1F4B186070BD8E
:1039F00099001A481A4A885001331F2BF8D9EAE770
:103A00000023FAE71948FFF771FC05001848FFF793
:103A10006DFC023803789B007F2B19DD8022290082
:103A20000F4800F08BFB022CD7D1124B1A88B5231C
:103A30001B029A4209D1104B1A88104B9A4204D1AA
:103A40000F4B1A880F4B9A42C7D00020FEF786FB17
:103A50000D4B0E4A32210E48FEF7E6FA953A001059
:103A6000BC0400204C330000BC050020534400007F
:103A70005346000054380000D83800004946000082
:103A80009C38000059460000B855001084560010BC
:103A90000C56001007B56046002800D100BE018812
:103AA0000A0A0230DF2AFAD1C9B2820804D3028896
:103AB00040880004104300E00068024A5050039020
:103AC00007BD0000BC0400200FB403BC0CBCF0B563
:103AD0000124E407634000E0F0B50C0DCF0F661E33
:103AE0003605891B640503D3C943404200D3013125
:103AF000640D03D0661CF60A07D0E41B00207F008B
:103B0000791C89078912803C24031D0DDF0F6E1E6E
:103B100036059B1B6D0503D3DB43524200D30133B3
:103B20006D0D03D06E1CF60A07D0ED1B00227F003E
:103B30007B1C9B079B12803D2D032F1B661B58D4BB
:103B4000A446202E46DA20371400BC401D00BD409C
:103B5000F24033412A4380185941CB0F05D0C94365
:103B6000C043002264425041514162464D0D28D16C
:103B70000D0D07D100281FD0241940414941013AB9
:103B80000D0DF9D0640006D3013000D30131002CB3
:103B900001D140084000013A0BD4941CE40A04D13E
:103BA00012051144DB071944F0BDD907204B194316
:103BB00000E0D9070020F0BD0029DDD1002CDBD1C9
:103BC000F0BD0132C6074008CD0728434908002E42
:103BD000E1D0D9E73C2E29DA203E40371400BC4022
:103BE00000D00124F24014431A00BB401C43D317F9
:103BF000ACE7AC46202F08DA20360400B4400D00B4
:103C0000B540F84039412843A5E73C2F0CDA203F66
:103C100040360400B44000D00124F84004430800BA
:103C2000B1400C43C117EAE710001900002494E7E3
:103C30000000F07FF0B50C0D661E3605891BE60A04
:103C40006405640D02D0651CED0A04D0002001213A
:103C50000905803C2403A4461C0D671E3F05DB1BA1
:103C6000E70A6405640D02D0651CED0A04D0002249
:103C700001231B05803C24037740644497B484B23D
:103C800096B27443070C7E43150C6F4380B26843B1
:103C9000361802D3012000043F183004350C0019F7
:103CA0007D41844688B29AB250430C0C62431F0C8B
:103CB0007C438EB27E43921902D301263604A419A6
:103CC0001604170C3618674101BC81B29AB25143F1
:103CD000040C62431B0C5C4380B25843121802D39D
:103CE0000120000424181004130C401863412D18FF
:103CF0005E410020474106BC88B293B258430C0C89
:103D00006343120C544389B251435B1802D301211F
:103D10000904641819041A0C091862416D185641F7
:103D20000020474118BCF902720D1143F0026A0DE0
:103D30001043ED020A0D03D16D1940414941013B89
:103D4000124E9B1B7600B3420ED26D0007D301309A
:103D5000002671416646354301D1400840001B05ED
:103D6000C918E4072144F0BD0BDA013306D1013054
:103D700004D101314F0D01D04908F2E7E1070020DD
:103D8000F0BD013631050020EBE70000FF03000025
:103D9000F0B51C0D671E3F05DB1BE70A6405640DCB
:103DA00002D0661CF60A04D0002201231B05803CC9
:103DB0002403D0252D060026F6432E661E096E66C6
:103DC000CE0FF619B44649004F0D02D07E1CF60AFC
:103DD00003D000200021403F3F033E1BB600B44407
:103DE000013F7F05C91B49082E6F013676089C02EA
:103DF000950D25437543ED137543AD1301356D10D6
:103E0000F603761B0CB4CC02450D2C43A2B2B3B220
:103E10005A43270C7B43350C6F43A4B26C431B19E8
:103E200002D3012424043F191C041D0CA4187D4155
:103E300024196D41009A91B2ACB26143170C7C43D6
:103E40002B0C5F4392B25A43A41802D301221204EE
:103E5000BF182204230C52187B41019C6C431B1990
:103E6000520ED9010A434401A01A81B2B2B25143A1
:103E700003145A43360C734387B27743D617D219CB
:103E800000277E4136049B191704160C7F185E41EB
:103E90007316ED18F301002680337541A90F06D182
:103EA0006400690AE8055B0A184309D22FE004227E
:103EB000944480337541A90AA8059B0A184326D368
:103EC000404149412404009A019B0D005543641B65
:103ED0004343E41A95B286B27543170C7E43030C34
:103EE0005F4392B25A43B61802D301221204BF189C
:103EF0003204330C52197B4152429C41002C02D4B3
:103F00000022013051414008CA071043490802B05D
:103F10006246D7079210084BD218084B9A4203D238
:103F200012058918C919F0BD0020002A01DC3900EA
:103F3000F0BD01331905F5E7FD030000FE070000A1
:103F4000002200B5203200F004F8080000BD000097
:103F500000220B150AD410B5944600F031F8141461
:103F6000013400DA0021CB17144C20470020002137
:103F700070476244343A0CD40C2A07DA04009140AA
:103F8000904052422032D440214310BDD843D943FF
:103F900010BD203207D40C469440524220321141C9
:103FA000D040204310BD0800C917203203D452422C
:103FB0002032104110BD1800190010BD733F0010D1
:103FC0000A0DCC0F531E1B05C91A520503D3C94352
:103FD000404200D30131520D03D0531CDB0A07D0FD
:103FE000121B00206400611C89078912803A1203A9
:103FF000014BD21A70470000FF03000070B5132375
:104000001D782A48FFF772F90400012D11D0012D07
:1040100009DDA31E1B789B007F2B40DD8022210041
:10402000234800F08BF82348FFF758F9224B18601B
:1040300070BD542201001E4800F080F81F4B1A8802
:104040001F4B9A421CD1A7239B011A881D4B9A42F1
:1040500016D11D4B1A881D4B9A4211D11C4B1A8840
:1040600094239B019A420BD11A4B1A881A4B9A42FD
:1040700006D11A4B1A681A4B9A4201D1152307E050
:104080001848FEF76BF899001748094A8850013321
:104090001F2BF8D9144A064B1A62DA61B7E7134BA3
:1040A000134A42211348FDF7BFFFC04653460000A4
:1040B000C00500204C330000BC050020EE290000A4
:1040C000C40F0000C20D0000962B0000C0B5000018
:1040D000182B0000CC2A000010B50000FC2C0000BA
:1040E00051ED8764E0460010F9400010985600102A
:1040F00044570010CC56001007B56046002800D188
:1041000000BE01880A0A0230DF2AFAD1C9B2820849
:1041100004D3028840880004104300E00068024A8B
:104120005050039007BD0000C00500200148042145
:10413000014B1847C0020020FD320010014B5B68A4
:1041400018470000C002002010B50300080011004D
:104150001B68984710BD0000F8B507000D00160059
:10416000437D002B02D0002400200CE003681100E6
:10417000280098472DE03B7D10E0022115483B6860
:104180009847601C0134B44214DA002CF3DD2B197B
:10419000013B1B780D3B5A425341DBB22A5D0A2A90
:1041A000F0D1002BEED1A042E7DA211A28183B68A3
:1041B0009847E2E7B04203DA311A28183B6898477B
:1041C000002E06DDAD19013D2B780D3B5A425341BF
:1041D0003B75F8BDD457001070B505000368002B7F
:1041E00016D00C4B1C6805E0290004C92000FFF71D
:1041F000B3FF2469002C09D02368002BF9D0064BAB
:104200001B68002BF0D0A342F3D1EDE700232B6015
:1042100070BDC046A4040020A804002070B50500AD
:104220000C000B68802B05D021684B1C23606418A0
:10423000257170BD0800FFF7CFFFF5E710B5FDF75A
:1042400021F902000B1E0BDB0D48002112184B4117
:10425000002B0BDB002B0DDB0A4800F02DFA10BD04
:10426000094B0A4A3F210A48FDF7DEFE012252426D
:10427000084BEFE7044B054A3F210548FDF7D4FE04
:1042800040420F00E8020020244A0010BC570010F2
:10429000404A0010FFFFFF7F10B5024800F0F4F91C
:1042A00010BDC046E8020020F0B5CE46474680B5B6
:1042B00083B006000D0090461C00FFF7BFFF81464B
:1042C0006B1C05D0002C08D0194F1A4B1C6807E056
:1042D000300000F0A7F90500F4E7174FF5E724696F
:1042E000002C17D02368002BF9D0144B1B68002B2F
:1042F00001D0A342F3D12A0031002000B847434641
:10430000002BECD06B46D91D0A230B700122200034
:10431000B847E4E74B46002B07D16B1E9D41E8B23E
:1043200003B0C0BCB946B046F0BDFFF7B5FFF4E737
:1043300049410010A404002059410010A8040020A5
:10434000094A01E010331A001368002B08D0834299
:10435000F8D1002907D1036913600023036102E04B
:10436000002900D010607047A404002010B5064B4F
:104370001C6801E098472469002C03D06368002B77
:10438000F8D1F8E710BDC046A404002070B50500C0
:1043900000F048F904000023012201002800FFF783
:1043A00083FFFFF7E3FF200070BD000070B5A2B0EF
:1043B00004000E00FFF742FF0500002301933300C5
:1043C000220001A90848FEF771FF040001A8FFF7C9
:1043D00003FFFFF7CBFF002D02D1200022B070BDFC
:1043E000FFF75AFFF9E7C0461D4200100FB400B5B1
:1043F00083B004A901C90191FFF7D8FF03B008BC3D
:1044000004B0184710B500F0F9F8012010BD000005
:10441000F0B583B005000E0000240FE06B46D91DF7
:104420000D230B700020002816D193699B06FCD445
:104430000B78136001300131F5E70134B44219DA29
:104440000D4B1A682F5D0D4BD31859424B415B0041
:104450000B495B5EBB42E1D06B46D91D0F7000205B
:104460000028EAD193699B06FCD40B7813600130D5
:104470000131F5E703B0F0BDD80600200080FCBF95
:10448000D4060020F0B583B006000F00002504E03C
:104490006B4607331B782B702500BD4215DA174B8E
:1044A0001A6893691024210019401C420DD16C1C1C
:1044B00075196B46D81D0029EAD19369DB06FCD437
:1044C0001368037001310130F5E70D4B1B68002BB9
:1044D0000CD00A4B1A685023936311003431536B8C
:1044E00038221A4080235B010B431A60002D02D052
:1044F000280003B0F0BD033DFAE7C046D80600200F
:104500003404002010B5064B1B68002B06D0054A6A
:10451000126800219163044A1068984710BDC04694
:1045200034040020D80600203804002070B50400B0
:104530000E001C4B1B681C4A981842425041143014
:104540000500002C03D0194A1268002A06D0002C5E
:1045500019D0164B1C60164B1E6070BD1549FCF738
:1045600097F801212800FCF783F80E4B1A685023B6
:10457000936311003431536B38221A4080235B015E
:104580000B431A60E5E7094A1268002AE1D00022CD
:104590009A6300212800FCF76BF806492800FCF715
:1045A000A1F8D6E7D80600200080FCBF3404002024
:1045B000380400200545001070B50D001C000D4B9F
:1045C0001860002A0BDA002C0EDA0A4B1868290052
:1045D000FDF72EFB01210848FFF7B2FE70BD022156
:1045E0001000FBF755FFEEE702212000FBF750FF1C
:1045F000EBE7C046D8060020D002002010B5064BDD
:104600001B78064B1B78E121012300224902044854
:10461000FFF7D2FF10BDC0463458001038580010C4
:104620000040034010B583070AD00300032102E0D5
:1046300001330B4205D01A78002AF9D1181A10BD9F
:10464000030019680C4A0D4C8A188A4322420FD184
:104650005968094A04338A188A43224208D15968A2
:10466000054A04338A188A432242F1D000E001331C
:104670001A78002AFBD1E1E7FFFEFEFE80808080F1
:10468000F8B5C0460000000001B40248844601BCF1
:10469000604700BFC901002001B40248844601BC44
:1046A000604700BF1502002001B40248844601BCE7
:1046B000604700BF1502002001B40248844601BCD7
:0846C000604700BF95010020D6
:1046C8000A48656C6C6F2C207561727420696E7471
:1046D800657272757074730A0000000064656C740A
:1046E80061203E3D202D3230343820262620646556
:1046F8006C7461203C3D203230343620262620213F
:104708002864656C7461202620312900433A2F55AE
:10471800736572732F35393230312F4465736B747A
:104728006F702F4E552F3230323420537072696EAD
:10473800672F4D453433332F5069636F2065786197
:104748006D706C657320616E642053444B2F7069E3
:10475800636F2D73646B2F7372632F7270325F6394
:104768006F6D6D6F6E2F68617264776172655F69D6
:1047780072712F6972712E63000000002128646530
:104788006C7461203E3E2031317529006375727268
:10479800656E74203D3D205F5F756E68616E646C68
:1047A80065645F757365725F697271207C7C2063D4
:1047B800757272656E74203D3D2068616E646C652B
:1047C800720000006972715F68616E6465725F6390
:1047D8006861696E5F667265655F736C6F745F6848
:1047E800656164203E3D20300000000076746162FF
:1047F8006C655F68616E646C6572203D3D205F5F2B
:10480800756E68616E646C65645F757365725F6907
:1048180072710000212828282875696E74707472D6
:104828005F7429767461626C655F68616E646C653B
:104838007229202D20282875696E747074725F742F
:10484800296972715F68616E646C65725F63686123
:10485800696E5F736C6F747329202D20312925735D
:10486800697A656F662873747275637420697271EA
:104878005F68616E646C65725F636861696E5F73BF
:104888006C6F74292900000030783163203D3D2089
:10489800282A696E7374293E3E3131750000000084
:1048A80021657863657074696F6E207C7C206578FB
:1048B80063657074696F6E203D3D206E756D202BA9
:1048C80020565441424C455F46495253545F495221
:1048D8005100000066616C736500000069735F73C6
:1048E80068617265645F6972715F7261775F686140
:1048F8006E646C657228736C6F745F68616E646C4B
:1049080065722900657863657074696F6E000000D0
:10491800666F756E640000006972715F6164645F40
:104928007461696C5F746F5F667265655F6C6973EB
:1049380074000000696E736572745F6272616E6301
:10494800685F616E645F6C696E6B00006972715FAD
:1049580072656D6F76655F68616E646C6572000084
:104968006D616B655F6272616E6368007265736F1B
:104978006C76655F6272616E636800006972715F70
:104988007365745F6578636C75736976655F686174
:104998006E646C6572000000746F74616C000000D6
:1049A800433A2F55736572732F35393230312F449E
:1049B80065736B746F702F4E552F3230323420531D
:1049C8007072696E672F4D453433332F5069636FAA
:1049D800206578616D706C657320616E6420534446
:1049E8004B2F7069636F2D73646B2F7372632F6322
:1049F8006F6D6D6F6E2F7069636F5F73796E632F64
:104A08006D757465782E63006D74782D3E636F72D2
:104A1800652E7370696E5F6C6F636B0075735F737F
:104A2800696E63655F626F6F74203C3D20494E5428
:104A380036345F4D41580000433A2F557365727301
:104A48002F35393230312F4465736B746F702F4EA8
:104A5800552F3230323420537072696E672F4D45AE
:104A68003433332F5069636F206578616D706C65DE
:104A78007320616E642053444B2F7069636F2D73EC
:104A8800646B2F7372632F636F6D6D6F6E2F706918
:104A9800636F5F626173652F696E636C7564652F00
:104AA8007069636F2F74797065732E680000000059
:104AB8006C6F636B5F69735F6F776E65725F696454
:104AC8005F76616C6964286D74782D3E6F776E65CA
:104AD800722900006D74782D3E656E7465725F638F
:104AE8006F756E74000000006D757465785F657889
:104AF800697400006D757465785F656E7465725FC2
:104B0800626C6F636B5F756E74696C0072742D3EB6
:104B1800616C61726D5F6964203D3D2069640000CD
:104B2800433A2F55736572732F35393230312F441C
:104B380065736B746F702F4E552F3230323420539B
:104B48007072696E672F4D453433332F5069636F28
:104B5800206578616D706C657320616E64205344C4
:104B68004B2F7069636F2D73646B2F7372632F63A0
:104B78006F6D6D6F6E2F7069636F5F74696D652FF0
:104B880074696D652E6300006964202626206964B7
:104B9800203C3D20706F6F6C2D3E686561702D3E26
:104BA8006D61785F6E6F646573000000696420262C
:104BB80026206964203C3D20686561702D3E6D614A
:104BC800785F6E6F64657300433A2F55736572732F
:104BD8002F35393230312F4465736B746F702F4E17
:104BE800552F3230323420537072696E672F4D451D
:104BF8003433332F5069636F206578616D706C654D
:104C08007320616E642053444B2F7069636F2D735A
:104C1800646B2F7372632F636F6D6D6F6E2F706986
:104C2800636F5F7574696C2F696E636C7564652F4B
:104C38007069636F2F7574696C2F70686561702E69
:104C480068000000706172656E745F69640000003E
:104C58006368696C645F6964000000007061726574
:104C68006E745F696420213D206368696C645F69C4
:104C7800640000002170685F636F6E7461696E7311
:104C88005F6E6F646528706F6F6C2D3E686561702C
:104C98002C2072657573655F6964290072656D6F94
:104CA8007665645F6964203D3D206E6578745F6950
:104CB8006400000063616C6C6261636B000000005B
:104CC800706F6F6C2D3E616C61726D5F696E5F70A5
:104CD800726F6772657373203D3D206D616B655F10
:104CE8007075626C69635F69642869645F68696785
:104CF800682C206E6578745F6964290069642026D1
:104D080026202170685F636F6E7461696E735F6ED1
:104D18006F646528686561702C206964290000004B
:104D280021686561702D3E667265655F7461696CA6
:104D38005F69640064656661756C745F616C61725B
:104D48006D5F706F6F6C5F696E697469616C697AA9
:104D58006564282900000000616C61726D5F6964F8
:104D680020213D20706F6F6C2D3E616C61726D5F0C
:104D7800696E5F70726F67726573730072630000AB
:104D8800616C61726D5F706F6F6C5F63616E63659C
:104D98006C5F616C61726D007570646174655F75DC
:104DA800735F73696E63655F626F6F740000000004
:104DB800616C61726D5F706F6F6C5F616C61726D59
:104DC8005F63616C6C6261636B0000006765745FB0
:104DD800656E747279000000616C61726D5F706F4E
:104DE8006F6C5F6765745F64656661756C740000FD
:104DF8006765745F656E7472795F69645F68696717
:104E08006800000070685F667265655F6E6F646554
:104E18000000000070685F6164645F6368696C64C7
:104E28005F6E6F646500000070685F696E7365721D
:104E3800745F6E6F6465000070685F6765745F6EAD
:104E48006F6465006164645F616C61726D5F756E4B
:104E58006465725F6C6F636B000000004861726488
:104E68007761726520616C61726D20256420616CC8
:104E7800726561647920636C61696D656400000026
:104E880074696D65725F68772D3E696E747320264C
:104E9800203175203C3C20616C61726D5F6E756DD0
:104EA80000000000433A2F55736572732F3539326D
:104EB80030312F4465736B746F702F4E552F32301D
:104EC800323420537072696E672F4D453433332F57
:104ED8005069636F206578616D706C657320616ED1
:104EE800642053444B2F7069636F2D73646B2F7369
:104EF80072632F7270325F636F6D6D6F6E2F6861B2
:104F08007264776172655F74696D65722F74696D1B
:104F180065722E63000000006861726477617265D3
:104F28005F616C61726D5F7365745F7461726765F0
:104F3800740000007570646174655F75735F7369F0
:104F48006E63655F626F6F7400000000726F6F744C
:104F58005F696400433A2F55736572732F35393290
:104F680030312F4465736B746F702F4E552F32306C
:104F7800323420537072696E672F4D453433332FA6
:104F88005069636F206578616D706C657320616E20
:104F9800642053444B2F7069636F2D73646B2F73B8
:104FA80072632F636F6D6D6F6E2F7069636F5F75BE
:104FB80074696C2F70686561702E63002170685F7A
:104FC8006765745F6E6F646528686561702C207210
:104FD8006F6F745F6964292D3E7369626C696E67CF
:104FE800000000002170685F6765745F6E6F64651C
:104FF80028686561702C20726F6F745F6964292D51
:105008003E706172656E74006E65775F7375625F7E
:105018007472656520213D20686561702D3E726F50
:105028006F745F696400000070685F72656D6F7609
:10503800655F616E645F667265655F6E6F6465006B
:1050480070685F72656D6F76655F616E795F6865C0
:105058006164000070685F6164645F6368696C64C0
:105068005F6E6F646500000070685F6765745F6EEF
:105078006F6465007372635F66726571203E3D20E0
:105088006672657100000000433A2F5573657273AC
:105098002F35393230312F4465736B746F702F4E52
:1050A800552F3230323420537072696E672F4D4558
:1050B8003433332F5069636F206578616D706C6588
:1050C8007320616E642053444B2F7069636F2D7396
:1050D800646B2F7372632F7270325F636F6D6D6FC5
:1050E8006E2F68617264776172655F636C6F636B62
:1050F800732F636C6F636B732E630000636C6F6355
:105108006B5F636F6E6669677572650076636F5F64
:1051180066726571203E3D20285049434F5F504CD0
:105128004C5F56434F5F4D494E5F465245515F4B6A
:10513800485A202A204B485A292026262076636F71
:105148005F66726571203C3D20285049434F5F508F
:105158004C4C5F56434F5F4D41585F465245515F37
:105168004B485A202A204B485A290000433A2F55C9
:10517800736572732F35393230312F4465736B7410
:105188006F702F4E552F3230323420537072696E43
:10519800672F4D453433332F5069636F206578612D
:1051A8006D706C657320616E642053444B2F706979
:1051B800636F2D73646B2F7372632F7270325F632A
:1051C8006F6D6D6F6E2F68617264776172655F7065
:1051D8006C6C2F706C6C2E63000000006662646952
:1051E80076203E3D20313620262620666264697688
:1051F800203C3D203332300028706F73745F64693F
:105208007631203E3D203120262620706F73745F52
:1052180064697631203C3D203729202626202870D5
:105228006F73745F64697632203E3D2031202626F4
:1052380020706F73745F64697632203C3D20372993
:10524800000000007265665F66726571203C3D2053
:105258002876636F5F66726571202F2031362900CA
:10526800706C6C5F696E6974000000002C206675B4
:105278006E6374696F6E3A20000000006173736595
:105288007274696F6E2022257322206661696C65CD
:10529800643A2066696C6520222573222C206C698B
:1052A8006E65202564257325730A000031203D3D75
:1052B800202875696E747074725F74296C2D3E7342
:1052C80070696E5F6C6F636B00000000433A2F5586
:1052D800736572732F35393230312F4465736B74AF
:1052E8006F702F4E552F3230323420537072696EE2
:1052F800672F4D453433332F5069636F20657861CC
:105308006D706C657320616E642053444B2F706917
:10531800636F2D73646B2F7372632F7270325F63C8
:105328006F6D6D6F6E2F7069636F5F72756E7469E4
:105338006D652F72756E74696D652E6300000000CF
:105348000A2A2A2A2050414E4943202A2A2A0A009A
:105358000A00000072756E74696D655F696E697424
:1053680000000000666E6900666E692B0000000090
:105378006E616E00666E692D00000000362D00100B
:10538800E62C0010E62C0010402D0010E62C001032
:10539800E62C0010E62C0010E62C0010E62C00107D
:1053A800E62C0010E62C00102C2D0010E62C001026
:1053B800222D0010E62C0010E62C0010182D0010ED
:1053C800D82D0010FE2D0010162E0010FE2D0010F6
:1053D800B82D0010FE2D0010FE2D0010FE2D00101F
:1053E800FE2D0010FE2D0010FE2D0010FE2D0010C9
:1053F800F42D0010FE2D0010FE2D0010FE2D0010C3
:10540800FE2D0010FE2D0010222E0010523200102A
:1054180068320010683200106832001068320010DC
:1054280068320010683200106832001068320010CC
:1054380068320010683200106832001068320010BC
:1054480068320010683200106832001068320010AC
:10545800683200106832001068320010683200109C
:10546800683200106832001068320010683200108C
:10547800683200106832001068320010683200107C
:105488006832001068320010683200107A3000105C
:105498003A3000107A30001068320010683200107C
:1054A800683200106832001068320010683200104C
:1054B800683200106832001068320010683200103C
:1054C800683200106832001068320010683200102C
:1054D80068320010683200102E2E0010683200105A
:1054E800683200106832001068320010683200100C
:1054F80068320010683200106832001068320010FC
:105508002E2E0010CA3000102E2E00107A300010F7
:105518003A3000107A300010683200102E2E001039
:1055280068320010683200106832001068320010CB
:10553800683200102E2E00101C3200106832001045
:105548006832001042310010683200102E2E001010
:1055580068320010683200102E2E00100000000083
:10556800000000000000F03F0000000000002440A0
:1055780000000000000059400000000000408F407B
:10558800000000000088C34000000000006AF840E6
:105598000000000080842E4100000000D01263410A
:1055A8000000000084D797410000000065CDCD4180
:1055B8002A282875696E74385F74202A29726F6DDD
:1055C8005F646174615F6C6F6F6B757028726F6D6B
:1055D8005F7461626C655F636F6465282753272C6D
:1055E8002027462729292D3229202A2034203E3DEC
:1055F8002053465F5441424C455F56325F53495AE7
:1056080045000000433A2F55736572732F353932C0
:1056180030312F4465736B746F702F4E552F3230B5
:10562800323420537072696E672F4D453433332FEF
:105638005069636F206578616D706C657320616E69
:10564800642053444B2F7069636F2D73646B2F7301
:1056580072632F7270325F636F6D6D6F6E2F70693A
:10566800636F5F646F75626C652F646F75626C65DC
:105678005F696E69745F726F6D2E63005F5F61654D
:105688006162695F646F75626C655F696E697400F9
:105698002A282875696E74385F74202A29726F6DFC
:1056A8005F7461626C652D3229202A2034203E3DCA
:1056B8002053465F5441424C455F56325F53495A26
:1056C80045000000433A2F55736572732F35393200
:1056D80030312F4465736B746F702F4E552F3230F5
:1056E800323420537072696E672F4D453433332F2F
:1056F8005069636F206578616D706C657320616EA9
:10570800642053444B2F7069636F2D73646B2F7340
:1057180072632F7270325F636F6D6D6F6E2F706979
:10572800636F5F666C6F61742F666C6F61745F691D
:105738006E69745F726F6D2E630000005F5F616554
:105748006162695F666C6F61745F696E697400009D
:105758004465627567000000626F6F74325F77326C
:105768003571303830000000312E352E3100000000
:105778007069636F000000005049434F746F5A65A9
:10578800726F00004D61792032332032303234009C
:1057980006005250BBFF3CB6785700100600525026
:1057A800E182887F6057001006005250D3F075429E
:1057B800585700107570646174655F75735F73691D
:1057C8006E63655F626F6F74000000000D0A000071
:1057D8005541525420737464696E00005541525407
:1057E800207374646F757400554152542073746447
:1057F800696E202F207374646F7574000600525010
:1058080053B4F4A1F0570010080052509200000061
:10581800AC020010A002001094020010985700106B
:1058280088020010A4570010B05700100458001048
:0458380010580010F4
:10583C0003000068EFF3108C72B60268002AFCD0EB
:10584C00BFF35F8F04229A56002A0BDB002910D07D
:10585C000A6000201B68BFF35F8F00221A608CF374
:10586C0010887047D0221206127852B21A71012099
:10587C00F0E70020EEE70000F8B5CE46474680B5CD
:10588C000400170098460368002B20D0D0231B0679
:10589C001B785BB299462668EFF3108C72B63568AC
:1058AC00002DFCD0BFF35F8F04256557002D14DB52
:1058BC002368BFF35F8F00221A608CF310883800C6
:1058CC00414600F069F80028E5D000200FE00A4BB3
:1058DC000A4A85210A4800F057F84B462371236881
:1058EC00BFF35F8F00221A608CF310880120C0BCBC
:1058FC00B946B046F8BDC046104A0010FC4A00102C
:10590C00A849001070B582B0060015001C0001A952
:10591C00FFF78EFF002807D1019B5BB2D022120645
:10592C00127852B2934201D102B070BD2A0023000A
:10593C003000FFF7A1FFF7E710B50268EFF3108115
:10594C0072B61368002BFCD0BFF35F8F0423C356D1
:10595C00002B0ADBFF2303710368BFF35F8F002268
:10596C001A6081F3108840BF10BD034B034AB42169
:10597C00034800F009F8C046B84A0010F04A00107D
:10598C00A84900107047C04601B40248844601BCC7
:10599C00604700BF2920001001B40248844601BCB6
:1059AC00604700BF31130010100000000000000021
:1059BC0000000100000000000000000000000200D8
:1059CC0000000000000000000000030000000000C8
:1059DC00000000000000FF000000000001B5486856
:1059EC0001318E460047704609380149884701BD90
:1059FC00910800109C020020000000000803002009
:105A0C00640400200000000000000000740400206A
:105A1C00000000000000000010000000000000006A
:105A2C00503300004C33000054330000523300005C
:105A3C004D5300004D43000053340000433400002C
:105A4C001144001000000000854400102D4500108A
:105A5C000000000000010000000000000000000039
:105A6C002D410010CD320010CD390010FD3F00103B
:045A7C00E50200102F
:04000005100001E9FD
:00000001FF
