:020000041000EA
:1000000000B5324B212058609868022188439860DF
:10001000D860186158612E4B002199600221596106
:100020000121F02299502B49196001219960352056
:1000300000F044F80222904214D00621196600F024
:1000400034F8196E01211966002018661A6600F04E
:100050002CF8196E196E196E052000F02FF8012189
:100060000842F9D1002199601B49196000215960AB
:100070001A491B48016001219960EB211966A021F2
:10008000196600F012F800219960164914480160C1
:100090000121996001BC002800D000471248134993
:1000A000086003C880F30888084703B5996A0420EC
:1000B0000142FBD001200142F8D103BD02B5186610
:1000C0001866FFF7F2FF186E186E02BD00000240BE
:1000D000000000180000070000035F00212200005C
:1000E000F4000018222000A00001001008ED00E03C
:1000F00000000000000000000000000074B24E7A12
:1001000000200420F7010010C3010010C5010010F9
:10011000C1010010C1010010C1010010C101001097
:10012000C1010010C1010010C1010010C701001081
:10013000C1010010C1010010C9010010CB01001065
:10014000CD010010CD010010CD010010CD01001037
:10015000CD010010CD010010CD010010CD01001027
:10016000CD010010CD010010CD010010CD01001017
:10017000CD010010CD010010CD010010CD01001007
:10018000CD010010CD010010CD010010CD010010F7
:10019000CD010010CD010010CD010010CD010010E7
:1001A000CD010010CD010010CD010010CD010010D7
:1001B000CD010010CD010010CD010010CD010010C7
:1001C00000BE00BE00BE00BE00BE00BEEFF3058054
:1001D000103800BEF2EB88710C230110302301109F
:1001E0003402001090A31AE700201F49086006C8D7
:1001F00081F3088810471D48006800282FD10DA4FE
:100200000ECC002902D000F012F8F9E71849194A7B
:10021000002000E001C19142FCD1174988471749ED
:1002200088471749884700BEFDE701C901C29A42C5
:10023000FBD3704730230110C0000020A809002024
:10024000182C01100000042000000420182C0110BC
:10025000001004200010042000000000704709482E
:1002600002F0E2FF0047000008ED00E0000000D0CF
:10027000A8090020300F0020051F0010D90300102E
:10028000C51E00105756000006005250ABB3605315
:1002900000AA001006005250861C030210AA00108B
:1002A000060052505422A29D18AA00100500525078
:1002B000DE65F468182C0110F8B5C04606480749F9
:1002C000091A8B10C90FC91810B5491003D0044B77
:1002D000002B00D0984710BDA8090020A8090020D5
:1002E00000000000054B10B5002B03D00449054861
:1002F00000E000BFFFF7E2FF10BDC04600000000B5
:10030000E40C0020A09E001010B582B00C00144B2D
:10031000C3185A425341134A5B009B5E8B4204D080
:100320006B46DA1D1470002115E06B46DA1D0D23B3
:10033000137000210029F3D183699B06FCD4137844
:10034000036001310132F5E783699B06FCD4137821
:100350000360013101320029F6D002B010BDC04661
:100360000080FCBF240F002030B583B004000D00D6
:10037000002313E06B46DA1D1170002006E0A3692C
:100380009B06FCD413782360013001320028F6D09C
:100390002B780D3B5A425341DBB2013529780029B5
:1003A00005D0002BE6D12000FFF7AEFFF0E703B049
:1003B00030BD82B000226B46D91D06E08369DB06A2
:1003C000FCD403680B7001320131002AF6D06B4671
:1003D000D87902B07047000010B504F009F919206F
:1003E00000F0E2F8D024240680239B0463620720F7
:1003F00000F0DAF8082000F0D7F80A2000F0D4F86E
:10040000092000F0D1F88023636280336362802387
:10041000DB00636280239B00636296211A4C090112
:10042000200001F03BFB0221002000F0A5F8022192
:10043000012000F0A1F8E1214902200001F0CEFAEC
:10044000236BC02212021340104A136000230122C2
:100450000821200001F0F0FA0021200001F002FB49
:100460000B49142000F0A0F90121142000F08CF9B0
:100470005023A363626B183B1340064A136006497E
:100480002000FFF771FFFEE70040034030500340BB
:10049000ED04001034500340A09E0010D0231B0632
:1004A00080229A6180325A618022D2009A61802231
:1004B00092005A617047D0231B0680225A61803215
:1004C0009A618022D2009A61802292005A6170471C
:1004D000D0231B0680229A6180325A618022D2008A
:1004E0005A61802292009A617047000010B517E0AF
:1004F0001C4A1D491D4804F09FFE1D4B00221A6036
:100500001EE0D0231B06802292049A61FFF7E0FFD1
:1005100006E0D0231B06802292045A61FFF7BEFF3B
:10052000144B9B69DB061BD41248FFF742FF104BAC
:100530001A680E4988541A6801321A600A28D7D0FE
:10054000084B1B68002BDCDD064B1B68002BE0DD35
:10055000D0231B06802292049A61FFF7ACFFDFE7ED
:1005600010BDC046E00C0020BC9E0010AC0C00206A
:10057000300C00200040034010B58300084A944628
:1005800063441A684024624080341440802252013F
:1005900013431C60C000034B9C466044416010BD87
:1005A00004C001400040014010B501238340D02227
:1005B0001206936293610521FFF7DEFF10BD000074
:1005C000034B1B6802201840431E9841C0B270477D
:1005D00000C00640EFF3108072B6034B1B68002B7F
:1005E000FBD0BFF35F8F70472C0100D0BFF35F8F4C
:1005F000024B00221A6080F3108870472C0100D053
:10060000F8B506000C001500FFF7E4FFE308F71843
:10061000F15C07222240012393400B4205D1DBB25B
:100620000B433B70FFF7E2FFF8BD2100280001F00B
:10063000E5FC0000002307E0054A9A189200BFF38A
:100640005F8F0021116001331F2BF5D97047C04621
:1006500040000034054A1078431CDBB21370172B9E
:1006600002D9130010221A707047C04638020020C9
:10067000074B9B68103080001950BFF35F8FBFF3AA
:100680005F8F044B0021196082F310887047C046C9
:1006900000ED00E0240100D010B50388DA0A1C2A1E
:1006A00005D15B055B1502335B00C01810BD034B21
:1006B000034A0448B12101F009FCC046C09E001065
:1006C000ECAB0010D89E001010B5091A0B1F0A4A97
:1006D00088180A4A904208D8C90706D45B105B05FF
:1006E0005B0D0748184380B210BD064B064A074809
:1006F000A32101F0EBFBC046FC070000FE0F000049
:1007000000E0FFFF489F0010E0AB0010D89E0010F3
:1007100010B5091A04394A08090B08D14905490DD1
:10072000064B0B430380064B1343438010BD054B20
:10073000054A0648AB2101F0C9FBC04600F0FFFFA7
:1007400000F8FFFF789F0010B4AB0010D89E001097
:1007500001238340034A10681840431E9841C0B2E9
:100760007047C04600E100E0002904D0034B186048
:10077000034B18607047034B1860FBE780E200E012
:1007800000E100E080E100E010B5012383401800A3
:10079000FFF7EAFF10BD0000024B9B68103080009D
:1007A000C058704700ED00E070B504000D00EFF395
:1007B000108672B60C4B1B68002BFBD0BFF35F8F0B
:1007C0002000FFF7E9FF094B984201D0A84205D16C
:1007D000320029002000FFF74BFF70BD044B054A93
:1007E0000548862101F072FB240100D0CD010010E4
:1007F000889F0010FCAB0010D89E0010F0B5CE46CC
:10080000474680B583B006000D00EFF3108872B63E
:100810004F4B1B68002BFBD0BFF35F8F4D4B9A688B
:1008200034001034A300D7584B4B9F4207D0AF423F
:1008300000D18BE00197494BFB1A2F2B09D9424677
:1008400039003000FFF714FF03B0C0BCB946B04612
:10085000F0BD3000FFF77CFF814600213000FFF73C
:1008600093FFBFF35F8FEFF30581002901D08C4226
:1008700011D10123019C9C430020A368AB4212D0FC
:100880000622A256002A0DDB53009B189B00334A18
:100890002000D418F1E7324B324A36213248FF317A
:1008A00001F014FB2000AB4249D106256557002D0D
:1008B0002BDB2A4B6A00521992009B189A68A2609F
:1008C000DA79E2719B795BB2A371002B0FDA2748CA
:1008D000A080224B6A00521992009B18244A11787A
:1008E0009971157049463000FFF74EFFA7E7680081
:1008F00040198000194BC0180430FFF7CDFE0100ED
:10090000231D1800FFF7E0FEE2E7002912D10028BE
:100910000ED0FF238371174B838015490B78A37189
:100920000E4A154BA41A644163431B0D0B70D9E7A3
:10093000094FF2E71149201DFFF7EAFED2E7104BFD
:10094000084A6A210848FF3101F0C0FA024F76E7F1
:10095000240100D000ED00E0CD0100103C02002099
:10096000C09F0010CCAB0010D89E001001BD00004D
:100970002D0F002001BDFFFFAAAA00007602002073
:10098000F49F001070B5012202432E4BD31A2F2B77
:1009900028D8EFF30583002B2BD0EFF3108C72B621
:1009A000294909680029FBD0BFF35F8F254C2749EF
:1009B00005002D1B6D416943090D4CB2244989681E
:1009C0009B00C95891421BD00021032932D81D4BEE
:1009D0004A00521892009B189B795BB2A3421FD029
:1009E0000131F2E71B4B1C4AC7211C48490001F0AA
:1009F0006DFA1B4B184A92211848FF3101F066FA34
:100A0000134A92681749D150174B1A7882711C709B
:100A1000BFF35F8F0C4B00221A608CF3108870BDFF
:100A2000084B4A005518AD005D19FF26AE710F4AFC
:100A3000AA80E9E70E4B084AD1210848490001F095
:100A400045FAC0463C020020240100D0AAAA0000BA
:100A500000ED00E0FC9F001098AB0010D89E001045
:100A600024A00010CD0100102D0F002001BDFFFFBC
:100A700030A000100022044B02E0044902C30132FE
:100A8000072AFAD97047C04600E400E080808080E1
:100A9000024B9C466144890001607047400000346D
:100AA00010B50400FFF7D6FD01002000FFF7F0FFAE
:100AB000FF232371BFF35F8F10BD10B50400FFF754
:100AC000C9FD01002000FFF7E3FFFF23237100238E
:100AD0006371BFF35F8F10BD084B5B6A994209D801
:100AE000064A926A824207D2994201D0012002E06E
:100AF000002000E0002070470120FCE70040054096
:100B000010B500290AD003681B7B8B4206D380688E
:100B1000054B9C4661440901401810BD034B044A33
:100B200004483C2101F0D2F9FFFFFF0FF4A00010B0
:100B30000CAD001018A10010F8B504001700FFF765
:100B4000DFFF0668456839002000FFF7D9FF02681B
:100B500043680120AB4201D802D00020C0B2F8BDEA
:100B6000B242FBD8F9E7000010B5002B02DB0260AF
:100B7000436010BD024B034A03483F2101F0A6F930
:100B800080A10010D8AC00109CA1001010B582B05C
:100B900004000498059912184B41002B09DB6846A4
:100BA000FFF7E2FF009A019B22606360200002B021
:100BB00010BD01225242014BF1E7C046FFFFFF7F0B
:100BC00010B5002908D0037B8B4205D300684B0089
:100BD0005B18033BC01810BD024B034A0348682151
:100BE00001F074F914A20010B4AC001030A200108F
:100BF00010B5437B8B4201D1012010BDFFF7E0FF10
:100C00008378002B01D10020F7E70120F5E770B5CC
:100C10000400857B002D01D1280070BD2900FFF75D
:100C2000CFFF4378A373002B00D1E37300238370BD
:100C300043700370F0E70000F8B506000C001500E3
:100C4000FFF7BEFF0700002C0DD0002D11D0AC42E5
:100C500015D029003000FFF7B3FF84703B78002BDC
:100C600013D13D70F8BD0A4B0A4A0B486F2101F0C1
:100C70002DF90A4B074A0848702101F027F9084B63
:100C8000044A0548712101F021F943703D70E9E7FC
:100C9000ACA2001090AC001030A20010B8A200105E
:100CA000C4A2001070B506000D001400002914D075
:100CB000002A14D0436880689847002806D0220094
:100CC00029003000FFF7B8FF280007E02A002100C4
:100CD0003000FFF7B1FF200000E0100070BD0800F9
:100CE000FCE7000070B504000D1E0CD0FFF768FF94
:100CF0000023837043700370617B2A002000FFF79C
:100D0000D1FF607370BD034B034A0448A52101F075
:100D1000DDF8C046DCA20010A4AC001030A2001028
:100D200070B504000D1E0FD0FFF762FF00280BD135
:100D3000E17B00290ED1A37B002B03D1E37B002BA9
:100D40000DD1A573E57370BD084B094A0948F6211A
:100D500001F0BCF82000FFF733FF4570EBE7064BCE
:100D6000034A0448FB2101F0B1F8C046E0A200109C
:100D700080AC001030A2001004A3001010B50029B0
:100D800007D003681B7B8B4203D3C068013940182E
:100D900010BD034B034A0448412101F097F8C046B7
:100DA000F4A000106CAC001018A1001070B5050084
:100DB0000C00080000F046FC0949200000F086FB0A
:100DC000FFF748FC074B9C466044800068602C7528
:100DD000D0231B061B786B75034BA400E55070BD38
:100DE000D50E001040000034FC0C00200A4B1A689D
:100DF000EFF3108172B61368002BFCD0BFF35F8F46
:100E0000054B1B68BFF35F8F00221A6081F31088C7
:100E100040BF002000217047100F002010B582B0A5
:100E2000040000F015FB02000B006846FFF79CFE73
:100E3000009A019B22606360200002B010BD000098
:100E4000F0B583B0070001921D000AAB1C780BAB14
:100E50001E78002C0BD000682100FFF7C9FE002887
:100E600009D0194B194A1A48672101F02FF8006878
:100E7000FFF7CDFE0400002C02D1200003B0F0BD2E
:100E800021003800FFF73CFE019B03604560089B92
:100E90008360099BC36038682100FFF723FFA042ED
:100EA000EBD1387D019A2B0000F058FB051E01D0D4
:100EB000002E04D00C9B002BDFD01D70DDE73868BE
:100EC000210000F005FDF5E718A30010C0AC0010EC
:100ED00018A10010F0B5DE4657464E464546E0B52F
:100EE0008FB00B900021794B8200D458894683E063
:100EF00029002000FFF704FE804602684368921B29
:100F0000BB41002B09DD43461A685B680B9800F073
:100F100025FB0023984600268AE0002B01D1002AF9
:100F2000F1D10021584600F0C9FC0700A84215D1B4
:100F300043461A685B680892099343469E68DB68DB
:100F40009846002E10D029002000FFF717FF0378E5
:100F500099461B021F432761002069E05C4B5D4AF4
:100F60005D488E2100F0B2FF5C4B5A4A5A489221EC
:100F700000F0ACFF2369002B00D177E0BB4219D110
:100F800006980799002342428B4100920193089AE8
:100F9000099B0CA8FFF7FAFD0C9A0D9B0021049108
:100FA0000131039102954146019100962000FFF71F
:100FB00047FF16E04A4B474A4748A12100F086FF09
:100FC000069A079B002B01D1002A52D120682900E4
:100FD000FFF7A6FE29002000FFF7D0FE03780133BB
:100FE0000370002323616268BFF35F8F13608AF38D
:100FF00010880120002861D00CA8FFF70FFF0C9E7D
:101000000D9F00220023089209936268EFF3108A73
:1010100072B61368002BFCD0BFF35F8F23689B462A
:101020005D7B002D00D063E700239846002600205A
:101030006368BFF35F8F00221A608AF31088002E66
:10104000D8D04B461F022F4341463800B047069088
:1010500007916268EFF3108A72B61368002BFCD018
:10106000BFF35F8F079B002B00DA83E7079B002B02
:10107000A6DD2369002BA9D0BB4219D10CA8FFF72C
:10108000CDFE0C9A0D9B06980799009001910CA833
:10109000FFF77CFD0C9A0D9B002104910131039117
:1010A00002954146019100962000FFF7C9FE98E79E
:1010B0000B4B084A0848A42100F008FF0FB0F0BC11
:1010C000BB46B246A946A046F0BDC046FC0C002077
:1010D00040A30010F0AC001018A1001058A300109D
:1010E00064A3001010B50C4B5B68002B04D00B48B8
:1010F0000A21FFF7CDFC10BD074C094A20682300E8
:10110000102100F046FB032000F096F90321200097
:10111000FFF74CFEEBE7C04684020020100F0020D2
:10112000390B001010B5064B5B68002B01D004484A
:1011300010BD044B044A05485E2100F0C7FEC046BE
:1011400084020020A0A3001054AC001018A10010CD
:10115000F0B5DE4657464E464546E0B58DB0060032
:1011600090461F00169B9A46179B994618AB1B7812
:101170000793272302AA9446634400221A7021E0B1
:1011800001003000FFF7FAFD00783CE00698002BE4
:101190005CD0079B002B59D04946D04704000D0076
:1011A00003000B4359D0002940DB08A8FFF736FEA7
:1011B000089A099B0094019508A8FFF7E7FC089B93
:1011C0009846099F7268EFF3108B72B61368594204
:1011D0004B41D9B20691002BF8D1BFF35F8F273373
:1011E00002AA9446634404930023039302934B465C
:1011F00001935346009342463B003000FFF720FE28
:101200000400051EBCD17368BFF35F8F0021196015
:101210008BF31088002D17D0272302AA944663442D
:101220001B78002BB2D100022043B0E700236242BA
:10123000AB410092019342463B0008A8FFF7A6FC91
:10124000089B9846099FBDE7012040420DB0F0BCC5
:10125000BB46B246A946A046F0BD0698F6E7F0B5F3
:10126000C64600B584B00500884616001F000AABCC
:101270001C78FFF757FF0294019700962A00434617
:10128000FFF766FF04B080BCB846F0BDF0B5C646B7
:1012900000B505000C1E42D04268EFF3108772B60D
:1012A0001368002BFCD0BFF35F8FE6B22B68984623
:1012B00031001800FFF79CFC00282AD02B69A342BC
:1012C00013D0240AE4B231002800FFF757FD037859
:1012D000A34211D000206B68BFF35F8F00221A6019
:1012E00087F3108880BCB846F0BD0E4B0E4A2C2107
:1012F0000E48FF3100F0EAFD3100404600F0E8FA08
:101300000028E8D10A4B084A99210848490000F012
:10131000DDFD2B69A342DED100232B61DBE700203A
:10132000E0E7C046C4A300103CAC001018A10010B8
:10133000E8A3001010B50400FFF7F4FE2100FFF74A
:10134000A5FF10BD30B583B005000C00EFF3058399
:10135000002B0FD10B4A00230093FFF780FF0028DA
:101360000BDD20BFFFF7E6FF28002100FFF7B4FBED
:1013700003B030BDFFF7B0FBFAE728002100FFF70C
:10138000ABFBF5E7ED0D001010B5002B02DB0260A2
:10139000436010BD024B034A03483F2100F096FD15
:1013A00080A1001034AD00109CA1001070B5EFF3C7
:1013B00005801038EFF3108C72B6194B1B68002BA8
:1013C000FBD0BFF35F8F01221300834015494B63AD
:1013D00015490B60154909780C00C440224213D00E
:1013E000104A546A124A8500AA58944205D3114AF9
:1013F000AA580E4C9943217007E00A4A031D9B002E
:1014000099589950002200E00022BFF35F8F044BEF
:10141000002119608CF31088002A00D0904770BD1D
:10142000280100D0004005403C7005402E0F0020F0
:10143000140F0020180C002010B50100024A034BC5
:101440001800FFF7DDF810BDECA300102C0F0020F2
:10145000044B5B6A034A906A1900536A9942F9D1B6
:101460007047C04600400540084B5B6A01E0074BEF
:101470005B6A8B42FBD301E0044B5B6A8B4203D176
:10148000024B9B6A8342F7D37047C0460040054039
:10149000F0B583B004000D00FFF7DAFF06000F007F
:1014A00022002B0092197B41994202D804D190422C
:1014B00002D901225242D3176846FFF765FF009810
:1014C0000199FFF7D1FF03B0F0BD000070B5040033
:1014D0000E00EFF3108572B61B4B1B68002BFBD080
:1014E000BFF35F8F002E1CD02000FFF755F9174B7C
:1014F00083420BD019002000FFF756F9012120008C
:10150000FFF742F90123A340114A1360114BA400D5
:10151000E650BFF35F8F0C4B00221A6085F31088F2
:1015200070BD0C4BA2000021D1500122A2400A49FB
:101530000B7893430B7005492000FFF75FF90021FA
:101540002000FFF721F9E4E7280100D0AD130010D7
:1015500038600540180C00202E0F0020F0B5DE4644
:1015600000B584B00400150001921E000293FFF73D
:101570006FFF03958E4202D84ED185424CD9EFF3CE
:10158000108B72B6274B1B68002BFBD0BFF35F8F0D
:10159000254A17780125A540EBB23B431370234B36
:1015A0005D63221D92000199D150214AA100029849
:1015B00088501B6A2B4212D11C4B1B6C2B4208D04B
:1015C0000020BFF35F8F174B00221A608BF3108847
:1015D00023E0184B184A1948C52100F077FCFFF7A3
:1015E00037FF8E4214D802D1039B834210D80E4B92
:1015F0001B78BB420ED00D4B1D625D631F22224043
:10160000012393400E4A1360074B1F700120D8E757
:101610000020D6E70120D4E7012004B080BCBB46FF
:10162000F0BDC046280100D02E0F0020004005402C
:10163000140F002010A4001018AD001034A40010E6
:1016400080E200E0EFF3108C72B60B4B1B68002BAE
:10165000FBD0BFF35F8F01238340084A1362084920
:101660000A789A430A70BFF35F8F034B00221A6017
:101670008CF310887047C046280100D00040054018
:101680002E0F002010B5002908D0037B8B4205D314
:1016900000684B005B18033BC01810BD024B034AA7
:1016A0000348682100F012FC14A200108CAD001059
:1016B00030A20010F8B506000C001500FFF7E2FF9D
:1016C0000700002C0DD0002D11D0AC4215D0290000
:1016D0003000FFF7D7FF84703B78002B13D13D70AB
:1016E000F8BD0A4B0A4A0B486F2100F0EFFB0A4B8A
:1016F000074A0848702100F0E9FB084B044A0548F6
:10170000712100F0E3FB43703D70E9E7ACA20010EB
:1017100078AD001030A20010B8A20010C4A20010D2
:1017200070B506000D001400002914D0002A14D052
:10173000436880689847002806D0220029003000BE
:10174000FFF7B8FF280007E02A0021003000FFF76C
:10175000B1FF200000E0100070BD0800FCE770B58C
:1017600005000023437301338373037BC373012498
:1017700006E021002800FFF785FF0134E4B2447041
:10178000297BA142F5D82800FFF77CFF0023437096
:1017900070BD10B5017342608360FFF7E0FF10BDBC
:1017A000F0B5C64600B505000C1E03D1200080BC74
:1017B000B846F0BDFFF766FF4678002EF6D0310040
:1017C0002800FFF75FFF4778002398464370210009
:1017D0002800FFF757FF43464370320021002800DE
:1017E000FFF79EFF040039002800FFF7D9FF020031
:1017F00021002800FFF794FF0400D7E7F0B5C646A4
:1018000000B504000D001700002927D0FFF73AFFAC
:101810004378002B28D18378002B2BD1017820002E
:10182000FFF7BEFF06008046002F0AD0E17B0029AB
:1018300026D1A37B002B03D1E37B002B25D1A573FD
:10184000E5734346002B26D129002000FFF71AFF3D
:1018500000234370300080BCB846F0BD114B124AE3
:101860001248382100F032FB114B0F4A0F483A2141
:1018700000F02CFB0F4B0C4A0C483B2100F026FBE0
:101880002000FFF7FFFE4570D3E70B4B064A0748E1
:10189000422100F01BFB31002000FFF7F3FE002384
:1018A0008370D1E7A8A4001064AD0010B0A40010AC
:1018B00018A5001040A5001004A3001070B5040086
:1018C0000A00457B2900FFF799FF6073280070BD6F
:1018D00070B506000C1E40D0437B8B4207D0FFF74B
:1018E000D1FE05008178002906D1002036E00121D3
:1018F000FFF7E4FF012031E03000FFF7C3FE01787D
:10190000A1420DD03000FFF7BDFE4178A1420AD0C0
:101910000029F7D1124B134A13486B3100F0D6FA65
:101920006B78037001E06B7843700023AB706B70D1
:10193000012221003000FFF761FF0200717B81422C
:1019400005D03000FFF7ECFE7073012006E0074B76
:10195000044A0548712100F0B9FA002070BDC04664
:1019600030A000104CAD0010B0A4001064A5001011
:1019700070B5046BE30701D4200070BD0200303263
:10198000C0239B0113430A4A1A60456A836AAD016A
:10199000ED18AD02062000F0C5F9064901F098FCEB
:1019A0000100280001F094FC0021FFF771FDE3E73E
:1019B000010300004E0E000070B504000E0015007B
:1019C000FFF7D6FF22002C32E36A5E4035408023C9
:1019D0005B0113431D60206370BD000070B50500FE
:1019E0000C00062000F09EF9C000210001F070FC00
:1019F000C60908D00E4B9E4216D87F230340013300
:101A000034005E0800E001246C62AE620022002116
:101A10002800FFF7D1FF062000F084F98000A10123
:101A2000891901F055FC70BD0026024CECE7C04658
:101A3000FEFF0000FFFF000010B505394901013A23
:101A4000D2001143002B09D002220A43012B07D0F8
:101A5000002111436E22FFF7AFFF10BD0022F4E713
:101A60000421F6E710B5002900D010211022FFF75D
:101A7000A3FF10BD002909D00A22064B9C466044F2
:101A800043425841044B4000C252704780225200EA
:101A9000F3E7C0460080FCBF240F002070B50500AE
:101AA0000C00062000F03EF9061E27D0164B9D4282
:101AB00026D08022D203154B1A60154B1A60154BA5
:101AC0009B6811009943FAD100212800FFF7D2FF4B
:101AD00021002800FFF782FF0600002301220821D1
:101AE0002800FFF7A9FF2A002C3280239B01134313
:101AF00010221A60084B2B630323AB64300070BDC7
:101B000080221204D7E7C0460080034000E0004076
:101B100000F0004000C0004001030000F8B5DE46C0
:101B200057464E464546E0B506000F0015000A9A96
:101B3000934250D31A0E92461B0298460A9A0023EB
:101B40004046514601F002FC81467400A419A400ED
:101B50002F4B9C4664446368834200D26060331F0D
:101B6000DBB29B46012B3CD9C0239B01234380223F
:101B700012011A60274BB200D158002907D05869CA
:101B800001F0A6FB013043001B18033BFDD26D01A1
:101B900023685D40E0222A4080235B0123431A60D2
:101BA0005A46012A28D980239B012343802212010F
:101BB0001A604B4663604A4600234046514601F096
:101BC000C5FB144BB60098510120F0BCBB46B24691
:101BD000A946A046F8BD104B104A1148332100F029
:101BE00075F9012FC0D1C0239B01234303221A6042
:101BF000A368DB07FCD5CAE72168794003220A40C5
:101C00001A60A3680125BD401D42FAD0CBE7C0464B
:101C100000800040340C002084A5001098AD001016
:101C200098A5001030B583B00C2000F011F9FEF734
:101C3000C7FC00280DD0002304E02E4A99002E484E
:101C400088500133092BF8D92A4B2C4A5A6203B029
:101C500030BD2B4B00229A6700F002F9294B01227C
:101C60001A60274B5B6C012BFBD1274B03221A60B8
:101C7000234B9B6B012BFBD1013300930433234A8D
:101C80000121234800F054F805230093214A012143
:101C9000214800F04DF8214B00930022022104203E
:101CA000FFF73CFF1E4D00952B000022012105206F
:101CB000FFF734FF104C009423000022002107207E
:101CC000FFF72CFF00942300002200210820FFF7DB
:101CD00025FF0A4B00932300002200210920FFF773
:101CE0001DFF00952B00002200210620FFF716FFA4
:101CF000ADE7C046340C0020006CDC021BB70000CE
:101D0000008000403CB0004030B00040002F6859D7
:101D100000800240008C864700C00240001BB700D4
:101D200040597307014B8000C0587047340C0020A5
:101D3000F0B5C64600B504000E0017001D00374878
:101D400001F0C6FA8046364BFA18364B9A4239D81B
:101D50000100380001F0BCFA0200103A98235B0041
:101D60009A4235D86B1E062B38D8069B013B062BB2
:101D700034D83F09474537D32D04069B1B031D4329
:101D80002368002B36DB284B9C4244D080235B0128
:101D9000264A1360264A1360264A92681900914326
:101DA000FAD12660A060221DC0239B01134321228B
:101DB0001A602268002AFCDAE56008221A6080BCFA
:101DC000B846F0BD1C4B1D4A1D48112100F07EF89D
:101DD0001C4B1A4A1A48192100F078F81A4B174A76
:101DE00017481C2100F072F8184B144A144823219C
:101DF00000F06CF822683F231340B342C3D1A368BC
:101E00001B051B0D8342BED1E368EE22D2021340B4
:101E1000AB42B8D1D3E780239B01B9E7001BB700E1
:101E200080E84BD380F8A93200C0024000E00040B7
:101E300000F0004000C000400CA60010A8AD00104B
:101E40006CA60010DCA60010F8A6001044A7001035
:101E500080239B000343014AD36270470080054002
:101E6000064BAA2212011A602F22DA60044B054A9F
:101E70001A60024B5B68002BFBDA7047004002409F
:101E80000060024000B0FA0000BEFDE703000A4A0D
:101E90001268002A08D0084A1068C318074A9A42F4
:101EA00006D3054A13607047034A05491160F2E7FB
:101EB00001204042F7E7C046A80C002000000420A3
:101EC000300F002010B5FFF7DFFF000030B583B002
:101ED0000D001900002A0BD0074B084C019200930B
:101EE0002B000200200002F077FB0120FFF7CCFF5F
:101EF000034B1A00F1E7C04660A7001070A700105E
:101F0000B89E001070B52B4B2B4A1A602B4B2C4AF5
:101F10001A602C4B9A682A4B9343FAD12A4C01E061
:101F200008CC9847294B9C42FAD3FFF77BFE234B02
:101F3000274A1A60234B9B68DB43DB01FAD1254B10
:101F400040229A675A671A67DA66234C09E0234BE6
:101F5000234A24488721FFF7B9FF2000FEF7A0FDA0
:101F60000834214B9C4209D22368002BF5D0012B69
:101F7000EDD12000FEF7A1FD0834F2E71B4DA96862
:101F80001B4CC022200002F097F9AC60EFF30583F0
:101F9000002B00D000BEFEF74DFBFEF76BFDFFF7F8
:101FA000A1F8144C01E008CC9847134B9C42FAD39B
:101FB00070BDC04600E00040BFCDFBFE00F0004019
:101FC000FE7F3C0000C0004094090020A4090020CE
:101FD000FFFFFF0100F001408C090020A0A70010C6
:101FE000B4AD0010C0A700109409002000ED00E07F
:101FF00000000020A4090020A80900200FB400B5AB
:1020000083B0084802F0B8FA049B002B07D005A95A
:102010000191180002F0C0FA034802F0ADFA012065
:10202000FFF732FF34A8001044A800109A4200D2F3
:1020300088547047704710B5002802D00B68496873
:10204000984710BD0100002007E083001B185B00CB
:10205000501C08601078C01830380A681378303B7C
:10206000DBB2092BF1D97047F0B5DE4657464E4634
:102070004546E0B583B093461F000C9B9A460D9CE5
:102080000E9B99460F9B9B0703D0B8460F00060096
:1020900022E00192A34688464E46B9460700B44264
:1020A00007D2551C4B4641462020B84701342A0030
:1020B000F5E73D004F465C46019B9B46B1464646D0
:1020C000B84637002E0007E0013C551C5346185D0A
:1020D00043463900B0472A00002CF5D135003E00B8
:1020E00047460F9B9B0707D4100003B0F0BCBB46CC
:1020F000B246A946A046F0BDB0464E46B9462F00AE
:102100005D46531BB342EFD2541C4B464146202040
:10211000B8472200F5E7F0B5CE46474680B585B012
:10212000944698460C9D0D9C0EAB1B789946109AD0
:10213000119B129EB7071CD4002B0CD0F7070AD5B1
:102140004F46002F02D10C37374204D0013B02E04A
:1021500030272F550134944201D21F2CF8D9F707AC
:1021600007D59C4205D21F2C03D830272F550134A8
:10217000F5E7F70612D5770505D4002C03D0944275
:1021800021D09C421FD00F9A102A32D00F9A022AD7
:1021900037D01F2C0AD830222A5501341F2C05D8DD
:1021A0004A46002A33D02D222A5501340396029341
:1021B0000194009543466246FFF756FF05B0C0BC48
:1021C000B946B046F0BD621E012C10D00F9F102FF3
:1021D0000BD014000F9A102AD8D1B206D6D51F2CD6
:1021E000D4D858222A550134D3E7023CCBE7140057
:1021F000C9E7B206EED41F2CECD878222A55013458
:10220000C7E71F2CD2D860322A550134C1E77207C4
:1022100003D52B222A550134C8E73207C6D5202220
:102220002A550134C2E7F0B5DE4657464E464546CC
:10223000E0B593B081468A46089209931CAB10CB57
:102240001B789B461E9D219B9846002C03D1102392
:1022500042469A4390468023DB0046461E40424653
:102260001A4212D0002C22D000260EE03033D9B210
:10227000771C0AAB99552900200001F029F8AC42DF
:1022800016D31F2F14D83E0004002900200001F0AF
:102290001FF8CBB2092BE9D94246920605D5412158
:1022A000C918C9B20A39C9B2E2E76121F8E72700C3
:1022B00043460693209B05931F9B049303955B461F
:1022C000029301970AAB0093099B089A514648462E
:1022D000FFF721FF13B0F0BCBB46B246A946A046AB
:1022E000F0BDF0B5DE4657464E464546E0B597B0E0
:1022F0000A900B910C929A46209B9946219F22AA04
:1023000013789B46249B0993259C289B98464A4614
:102310003A4302D11032934398468022D200454678
:102320001540434613420AD04A463A4341D000255D
:102330002E0053460D934D46099B9A461BE02E00F6
:1023400053460D934D46099B9A4614E03033DAB25A
:10235000731C99460EAB9A5552462300280039004B
:1023600000F0F4FFBC4226D819D04B461F2B1CD8D6
:102370004E4605000F00524623002800390000F0A9
:10238000E5FFD3B2092BE1D94246920605D5412299
:10239000D218D2B20A3AD2B2DAE76122F8E7AA45F5
:1023A000E3D94E460D9B9A4608E04E460D9B9A4651
:1023B00004E0002602E04E460D9B9A4643460693F3
:1023C000279B0593269B0493099B03935B460293EB
:1023D00001960EAB009353460C9A0B990A98FFF79F
:1023E0009AFE17B0F0BCBB46B246A946A046F0BD67
:1023F000F0B5DE4657464E464546E0B591B08046BC
:1024000089460C929A461A9C1B9D22002B002000A4
:10241000290001F02EFA002800D0ECE001225242FF
:10242000D44B2000290001F01FFA002800D0E2E080
:1024300001225242D04B2000290001F0FFF9002870
:1024400000D0D8E0002200232000290001F0F6F996
:10245000002800D0E4E0069407958023DB001E9A54
:102460001A400D921E9A1A4201D106231C93069817
:10247000079902000B000892099303000A00024327
:1024800000D1D9E0080D4005400DBC4EB446604473
:102490000A03120B1E00BA4B13431F0001F0FCF994
:1024A000B84AB94B01F07FF9B84AB94B01F054F979
:1024B000089009910022B74B3000390001F043F930
:1024C000B54AB64B01F06FF902000B000898099964
:1024D00001F042F901F0F8F9834601F0DDF9060058
:1024E0000F00AF4AAF4B01F05EF90022AE4B01F096
:1024F00033F901F0E9F90890AC4AAD4B30003900EE
:1025000001F051F906000F00089801F0C5F9A94A39
:10251000A94B01F048F902000B003000390001F02E
:1025200012F906000F0002000B0001F03CF90A90BE
:102530000B91089BA14A9446634400210022089114
:1025400009921B0509930023089332003B003000D9
:10255000390001F001F90E900F9132003B0000208C
:102560008021C90501F0EFF806000F000022944B0E
:102570000A980B9901F0F9F80022924B01F0ECF85F
:1025800002000B000A980B9901F0EFF800228E4B25
:1025900001F0E2F802000B000A980B9901F0E5F84F
:1025A00002000B003000390001F0D6F802000B00E9
:1025B0000E980F9901F0D9F80022714B01F0CCF878
:1025C000089A099B01F0EFF806000F00089609979A
:1025D000069A079B01F048F900282FD001235B429F
:1025E0009C46E3440022774B3000390001F0BDF8EF
:1025F0000890099122E01E9B04931D9B03931C9B52
:1026000002930094019553460C9A4946404600F0C7
:10261000FFF811B0F0BCBB46B246A946A046F0BDDB
:102620000021002206910792069480231B069C46F7
:10263000AC446346079310E700239B465B46633335
:10264000C62B20D804261E9B1B0528D5089A099B5B
:10265000190011430FD05D4A5D4B0698079901F0B0
:10266000FBF800287AD000225A4B0698079901F00F
:10267000E5F8002872D01C9B5B4506DD5A469B1A84
:10268000013B1C9303E00526DDE700231C93802318
:10269000DB001E9A1A431E92002600239B461D9BB8
:1026A0009E4265D29F1B02231E9A1A400A921E9ACE
:1026B000134202D0002E00D000275B46002B07D02B
:1026C000089A099B0698079901F04FF80690079120
:1026D000002200232000290001F0B0F8002800D0DB
:1026E0007CE03D4B1E9A1340049303971C9B02937E
:1026F000069B079C0093019453460C9A494640461A
:1027000000F086F8002E00D183E71E9B9B0671D552
:102710004525441C5346020049462800C0475A46F6
:10272000D317D2185A4005230593013E049600237F
:1027300003930A3302935B46DB0F019300925346E7
:10274000220049464046FFF76EFD0A9B002B00D150
:102750005FE7020047460C9E1D9D53E01C9B002B2B
:102760009DD00D9B002B9AD01C9B013B1C9396E7A0
:10277000002798E7FFFFEF7FFFFFEFFF01FCFFFF60
:102780000000F03FFB799F501344D33FB3C8608BE8
:10279000288AC63F0000F83F61436F63A787D23F96
:1027A00071A379094F930A400000E03F1655B5BB6D
:1027B000B16B0240EF39FAFE422EE63FFF03000004
:1027C00000002C4000002440000018402D431CEB6A
:1027D000E2361A3F80842E41FFF7FFFF069C079DDB
:1027E0002200290080200006844661440B000692E6
:1027F000079376E765258CE7541C5346494620200D
:10280000B8472200931BAB42F6D3100001E7C04645
:10281000F0B5DE4657464E464546E0B595B00690C3
:10282000079193469946209F1E9A1F9B10001900FE
:1028300001F01FF8002831D101225242BF4B1E98EF
:102840001F9900F0FBFF002837D101225242BC4BF8
:102850001E981F9901F008F800283DD10022B94BBD
:102860001E981F9901F000F8002850D10022B64BA5
:102870001E981F9900F0E2FF002848D10022002393
:102880001E981F9900F0DAFF002850D100239846C7
:10289000229B5B0500D4B6E0002458E0229B039302
:1028A000219B029303230193A84B00934B465A4666
:1028B00007990698FFF7D8FB0EE1229B0393219B13
:1028C000029304230193A24B00934B465A46079967
:1028D0000698FFF7C9FBFFE00423229A1A402299C9
:1028E0000B4210D09B4B002A0FD004222299039157
:1028F00021990291019200934B465A4607990698F6
:10290000FFF7B2FBE8E0944BEDE70322EEE7229BF2
:102910000493219B039302971E9B1F9C0093019499
:102920004B465A4607990698FFF762FDD4E01E9A77
:102930001F9B0020002100F006FF1E901F91012325
:102940009846A5E70CAB30221A55013F01341F2CE5
:1029500001D8092FF6D81E981F9900F0B5FF050081
:1029600000F09AFF02000B001E981F9900F0EBFE8A
:102970007A4BFA009B181A685B680A920B9300F076
:1029800012FF0890099100F0C3FF060000F080FFDD
:1029900002000B000898099900F0D5FE08900991F3
:1029A00000226F4B00F060FF00282ED0013630006F
:1029B00000F06EFF02000B000A980B9900F044FF34
:1029C000002801D001350026002F2CD1280000F06E
:1029D00063FF02000B001E981F9900F0B4FE060072
:1029E0000F0000225E4B00F029FF002846D1002294
:1029F0005B4B3000390000F037FF00283ED1EB0779
:102A00003CD501353AE0062746E70022544B0898AA
:102A1000099900F013FF0028D6D1002E01D0F3074A
:102A2000D2D50136D0E7AA461F2C11D8013F0A2182
:102A3000300000F04DFC651C30310CAB19550A21FB
:102A4000300000F045FC092E0ED906002C00EBE703
:102A500055461F2C0CD87B1E002F09D00CAA302104
:102A600011551F000134F4E72B0055461C00F0E718
:102A70001F2C03D80CAB2E221A5501341F2C10D852
:102A80000A21280000F0FCFB661C30310CAB195504
:102A90000A21280000F0F4FB051E01D03400EDE708
:102AA00034000323229A1340012B1CD01F2C06D87C
:102AB0004346002B32D00CAB2D221A550134229BF9
:102AC0000393219B029301940CAB00934B465A460F
:102AD00007990698FFF7C8FA15B0F0BCBB46B24696
:102AE000A946A046F0BD219B002B13D04346002BE6
:102AF00002D10C3313420FD0219B013B21931900CB
:102B000003E00CAB30221A5501348C42CED21F2C7C
:102B1000F7D9CBE72199F8E72199F6E7229B5B07E4
:102B200004D50CAB2B221A550134C8E7229B1B0796
:102B3000C5D50CAB20221A550134C0E7FFFFEFFFCB
:102B4000FFFFEF7F65CDCD4165CDCDC154A800100D
:102B500058A8001048A8001050A8001060AF00103E
:102B60000000E03FF0B5DE4657464E464546E0B52C
:102B700093B08246884693461193002900D10DE315
:102B800000255646119B1878002800D109E3252816
:102B900009D06C1C5B462A004146B047119B0133AB
:102BA00011932500EEE701331193002720E0012364
:102BB0001F4301321192012418E002231F43013206
:102BC0001192012412E004231F43013211920124C7
:102BD0000CE008231F4301321192012406E0102368
:102BE0001F4301321192012400E00024002C09D07F
:102BF000119A1378203BD9B21029F6D88B00C84916
:102C0000CB589F46119B1A781300303BDBB2092B3F
:102C100010D92A2A13D00B94119B1A782E2A1ED071
:102C2000119A1378683BD9B2122959D88B00BD4943
:102C3000CB589F4611A8FFF705FA0B90ECE71C9BB9
:102C40001A1D1C921B68002B04DB0B93119B013394
:102C50001193E1E7022217435B420B93F6E78022D0
:102C6000D20017435A1C11925A781300303BDBB242
:102C7000092B0BD92A2AD3D11C9B1A1D1C921C6824
:102C8000002C08DB119B01331193C9E711A8FFF752
:102C9000D9F90400C4E70024F4E780235B003B4338
:102CA000511C119151786C2901D01F0018E0C023EC
:102CB0009B001F430232119212E080233B43511CC0
:102CC00011915178682901D01F0009E0C0231F43EA
:102CD0000232119204E080235B001F430132119203
:102CE000119B1878672818D8252800D24CE20300D9
:102CF000253BDAB2422A00D946E293008A4AD358E9
:102D00009F4680239B001F4301321192E8E78023F6
:102D10005B001F4301321192E2E7782800D933E2C9
:102D2000692800D230E20200693AD2B2012393400E
:102D30007E4A134211D11A0600D500E25B0500D489
:102D400022E21C9B1A1D1C921B689A46002C00D084
:102D5000B2E10122524253468EE16F280ED006D8CE
:102D600058283DD0622804D102239C4608E07828E8
:102D700039D010239F43063B9C4601E008239C4624
:102D8000582833D0692803D0642801D00C229743F7
:102D90007A0501D50122974369282AD0642828D0D2
:102DA000BA0500D59FE0FA0500D5C1E07A0600D447
:102DB000D3E01C9A111D1C911168FF220A4005974F
:102DC0000B9B0493039463460293002301930092A8
:102DD0005B462A0041463000FFF725FA050027E050
:102DE00010239C46CCE710239C46C9E720221743BA
:102DF000C8E7BA0520D4FA0550D47A0666D51C9ADD
:102E0000111D1C911168FF220A40D0171118414072
:102E100005970B9B0493039463460293D20F019290
:102E200000915B462A0041463000FFF7FCF905009F
:102E3000119B01331193A5E61C9A073207218A439F
:102E4000110008311C91116853689946DB170C93E7
:102E50000D930C9A0D9B100048400E904A4653402B
:102E60000F930E980F990C9A0D9B801A99410E9012
:102E70000F9108970B9B07930694634604930023D6
:102E800005934B46DA0F0292009001915B462A00AF
:102E900041463000FFF725FA0500C9E71C9A111DCD
:102EA0001C911268D0171118414005970B9B049391
:102EB000039463460293D20F019200915B462A006D
:102EC00041463000FFF7AFF90500B1E73A0605D5F6
:102ED0001C9A111D1C910023D25E96E71C9A111DAD
:102EE0001C91126891E71C9A073207218A4311004E
:102EF00008311C9108970B9B079306946346049333
:102F000000230593029353681268009201935B4675
:102F10002A0041463000FFF7E4F9050088E7C04683
:102F2000C4AD001008AE001054AE00104190000077
:102F30001C9A111D1C9105970B9B049303946346E7
:102F4000029300230193136800935B462A004146D5
:102F50003000FFF768F905006AE73A0606D51C9AC3
:102F6000111D1C9112681204120C28E71C9A111DE5
:102F70001C91126823E7462819D01C9B07330722AF
:102F800093431A0008321C9204970B9A03920294FE
:102F90001A685B68009201935B462A004146300044
:102FA000FFF736FC0500119B01331193EAE520235E
:102FB0001F43E2E7672801D0472802D180231B0185
:102FC0001F43452801D0472801D120231F431C9BC4
:102FD0000733072293431A0008321C9204970B9A76
:102FE000039202941A685B68009201935B462A0080
:102FF00041463000FFF7FCF90500119B01331193A6
:10300000C0E502231A003A4091463B421DD00124FC
:103010001C9B1A1D1C926F1C18785B462A004146A7
:10302000B0474B46002B14D1119B013311933D0047
:10303000A8E5571C5B4641462020B04723003A00D4
:103040005C1C9D42F5D81500E2E701232A000B9D88
:10305000F6E73A00B1460B9E06E0571C5B46414638
:103060002020C8472C003A00651CA642F5D817005E
:103070004E46D9E701330A001978002902D0511EC3
:10308000002AF7D152469B1A8022D2003900114003
:103090008946174202D0A34200D923000222110020
:1030A000394010913A4209D02A00250057469A46E5
:1030B00033004E46994621E022004CE62A00454660
:1030C000A04606E0541C5B4629002020B0473B0088
:1030D00022005F1C0B999942F4D84446A8463B0055
:1030E000250057469A4633004E46994606E01D0095
:1030F0000137541C5B464146C847220038780028F7
:1031000004D0002EF4D06B1E002DF0D115005346D4
:103110004E46109A002A03D1119B0133119331E5D9
:103120000B9F2A0006E0551C5B4641462020B04715
:1031300023002A005C1C9F42F5D81500ECE72123F0
:103140003B431C9A111D1C9112680593082304939C
:103150000394083302930023019300925B462A00F4
:1031600041463000FFF75FF80500119B01331193D2
:1031700008E56C1C5B462A0041462520B047119BA0
:10318000013311932500FDE46C1C5B462A00414687
:10319000B047119B013311932500F3E40A4B9A4683
:1031A000EEE4B2465D450DD35B465A1E5B46414692
:1031B0000020D047280013B0F0BCBB46B246A94659
:1031C000A046F0BD2A00F1E7352000100EB430B55E
:1031D00084B0010007AC08CC03940122054D009493
:1031E00052422800FFF7BEFC04B030BC08BC03B05C
:1031F0001847C0462D20001000B585B002900391FD
:1032000001210448009313004A4202A9FFF7AAFCD7
:1032100005B000BD3720001001480421014B1847BC
:10322000B00200204932001010B5010018231B889D
:1032300014221088984710BD10B5010018231B8870
:1032400016221088984710BDF0B5C64600B5070095
:103250000E0000250123984600E00135B5420AD250
:10326000AC003C192068FFF7DFFF20600028F4D194
:1032700000239846F1E7404680BCB846F0BD000008
:10328000124A936F9B0815D29066D166002905D02B
:10329000FFE7FFE7FFE7516F106F704704B580212C
:1032A0000906C2175140002800D0C84306F0E8FDC7
:1032B000002104BDF0B5146E556E576F166FFFF701
:1032C000E3FF1466556657671667F0BD000000D02F
:1032D000114A936F9B0813D210665166002905D0DE
:1032E000FFE7FFE7FFE7516F106F704704B5002855
:1032F00001D00020C04306F0C3FD002104BDC0463C
:10330000F0B5146E556E576F166FFFF7E5FF146634
:10331000556657671667F0BD000000D094464A4ACC
:10332000926F9208624601D228E0C046F0B5464E40
:10333000346E756E776F366F00F020F89446424A0F
:1033400014665566576716676246F0BD94463E4A56
:10335000926F9208624601D254E0C046F0B53A4EF0
:10336000346E756E776F366F00F04CF89446364ABF
:1033700014665566576716676246F0BD002B24DB5E
:1033800011D000293EDA00B5C943404200D10131D5
:1033900000F038F8C943404200D10131DB435242CA
:1033A00000D1013300BD002AEBD1002801D1002952
:1033B00005D00020C90FC90701D1C043410800B59D
:1033C00006F056FD0022002300BD00B500290ADBEF
:1033D000DB43524200D1013300F014F8C9434042AC
:1033E00000D1013100BDC943404200D10131DB436E
:1033F000524200D1013300F005F8DB43524200D1C4
:10340000013300BD002923D1002B18D1002A0CD094
:10341000BC460D4F38667A6600210023FFE7FFE7C0
:10342000FFE77A6F386F67467047002801D007487A
:10343000010000B506F01CFD0022002300BD0200C3
:103440000B00002000217047000000D0FFFFFFFFAD
:10345000002B00D0BFE0130C28D1002AE7D080B4A5
:10346000114F39667A66FFE7FFE730B4040C7B6FD3
:10347000396F1B0423433B667A66FFE7FFE7FFE7EC
:10348000C04684B27B6F3D6F1B0423433B667A6664
:10349000FFE7FFE7C04600232C042D0C7A6F386F3E
:1034A00000196941B0BC7047000000D0F0B59446E7
:1034B0000025140E01D112020835140F01D112019A
:1034C0000435940F01D192000235D40F01D152007E
:1034D0000135D40B0134254F7C66254C3C660E0C1F
:1034E00093B2FFE7FFE7FFE73C6F6643360C7703D5
:1034F000BE467343DF0B5B04C01AB941130C734320
:10350000DB18C91ACE086643360CB64493B273432F
:103510001F0F1B01C01AB941130C73431F0B1B056E
:10352000C01AB941860D8F023E436643360C092D01
:1035300024DB520A7243801A7703460A6643360C2C
:1035400016235B1BDE40DF40BF1964466643821BC7
:103550007046043506330100D940A840C01900D395
:103560000131A24206D20023F0BD0000000000D0CD
:10357000FFFFFFFF121B0130F3D3F1E709277F1B89
:10358000FE406446A2B27243801A00D20139220C76
:103590007243130C1204821A99410B0070460435D1
:1035A00013370100F940A840801900D30131002BE6
:1035B00002D1A2420AD2F0BD013000D30131121B68
:1035C000FAD2013BF8D1A24200D2F0BD013000D3C3
:1035D0000131121BF7E7F0B51C0C00D080E00CB4F1
:1035E00000251C0A04D11B02160E334312020835B3
:1035F0001C0B04D11B01160F3343120104359C0B25
:1036000004D19B00960F334392000235DC0B02D1AC
:1036100092185B4101351C00971864410134464FF4
:103620007C66464C3C660E0CFFE7FFE7FFE7C046B2
:103630003C6F6643360C7703BE4697B27743C01B98
:1036400000D20139C01B00D201399FB27743C91B98
:10365000C91B170C77437E04FF0B801BB941CE08B2
:103660006643360C0C2D33DBB644120B1F053A4370
:103670001B0B97B27743C01B00D201399FB277432F
:10368000C91B170C77433E043F0C801BB941860DC4
:103690008F023E43664329277F1BFE400C3D774641
:1036A000AF40BF1930BCA2B2ABB272437343801AB1
:1036B0009941220C7243130C1204801A99410200A2
:1036C0000B000137001BA941F9D2781E0021F0BD83
:1036D0000C277F1BFE4077467F0BAF40FF19E0E7CA
:1036E00000245D1C07D0144F7D663966FFE7FFE7B5
:1036F000FFE7FFE73C6F95B29EB265436643401B10
:10370000B141150C1E0C6543664336042F0C3E4335
:103710002D04401BB141994204D202000B0020004D
:103720000021F0BD01D19042F7D3801A99410134B4
:103730009942F2D3F6E70000000000D0FFFFFFFF40
:1037400048404140484018B41B4B5B68FC4601931D
:1037500008BD04DFB73A001018B4174B1B68FC46CD
:10376000019308BD00DFC13A00109446134A926FDE
:10377000920809D2624618B40F4BDB68FC460193ED
:1037800008BD0CDF793D00100C4AF0B5146E556E83
:10379000576F166F6246FFF7EEFF084A14665566CC
:1037A00057671667F0BD18B4034B9B68FC4601933E
:1037B00008BD08DF1D3C00100C0D0020000000D0EB
:1037C000FFB550404240504059404B40594000E006
:1037D000FFB5154F4C00640D03D0BC4204D10C035F
:1037E00014D80020090D09055C00640D03D0BC420B
:1037F00004D11C030AD800221B0D1B0501264B40D7
:1038000009D44B4003D58B4200D18242FFBD99427F
:10381000FCD19042FFBD0B43DB1803431343F5D0AB
:10382000C9434918FFBD0000FF07000000B5FFF7BE
:10383000CFFF01D0002000BD012000BD00B5FFF783
:10384000C7FF804100BDC04600B5FFF7C1FF01D9E9
:10385000002000BD012000BD00B5FFF7B1FF01D978
:10386000002000BD012000BD00B5FFF7A9FF804189
:1038700000BD012040054A00121804D85A00121851
:1038800001D80020704701207047002070470000D9
:103890000021002805D17047C1174840401AFAD0CE
:1038A000C90713B5064B1B6898470CBC441CA240C3
:1038B0001005120B0349091B09051943114310BDDB
:1038C0000C0E00201F04000010B54C00620D802378
:1038D000D218DB00D21A5B057E2A10DD9E3A13DA7D
:1038E000CC170903490819435242D14064000134FE
:1038F0001532202A05DAD0400843604310BD00206D
:1039000010BD0846604310BDC80FC018013810BD77
:1039100018B4044B5B6AFC46019308BD24DF293FC1
:10392000001000000C0D002018B4044BDB6DFC46A9
:10393000019308BD5CDF3540001000000C0D002035
:10394000C94211D300B549004908002200F018F817
:10395000002904D4002240428A41114600BD802142
:103960000906002000BD000018B4044BDB6EFC46C5
:10397000019308BD6CDF373F001000000C0D0020E4
:1039800018B4044B9B6FFC46019308BD78DF533F8E
:10399000001000000C0D002018B4044BDB6FFC4637
:1039A000019308BD7CDFC13F001000000C0D00201A
:1039B00070B513231C78012C12D0012C12DC214B82
:1039C000214A93642148FFF72FFC214B186070BDFA
:1039D0001C491D4A9800815001331F2BF8D9ECE790
:1039E0000023FAE71B48FFF727FC05001A48FFF7FA
:1039F00023FC023803789B007F2B09DD12488022CC
:103A0000290000F059FC022C08D0022CDADCD6E7A1
:103A1000124B134A13483221FEF758FA124B1A88F8
:103A2000B5231B029A4209D1104B1A88104B9A42B7
:103A300004D1104B1A88104B9A42E6D00020FEF7B2
:103A4000DDFAC0467D3A00100C0D00204C3300001A
:103A50000C0E0020534400005346000060A80010E4
:103A6000B0AF0010B4A8001054380000D8380000DF
:103A7000494600009C3800005946000007B56046E2
:103A8000002800D100BE01880A0A0230DF2AFAD1DC
:103A9000C9B2820804D3028840880004104300E0C1
:103AA0000068024A5050039007BD00000C0D002032
:103AB0000FB403BC0CBCF0B50124E407634000E084
:103AC000F0B50C0DCF0F661E3605891B640503D3B8
:103AD000C943404200D30131640D03D0661CF60A8D
:103AE00007D0E41B00207F00791C89078912803CE5
:103AF00024031D0DDF0F6E1E36059B1B6D0503D3C2
:103B0000DB43524200D301336D0D03D06E1CF60A25
:103B100007D0ED1B00227F007B1C9B079B12803D82
:103B20002D032F1B661B58D4A446202E46DA2037BF
:103B30001400BC401D00BD40F24033412A438018B0
:103B40005941CB0F05D0C943C043002264425041C4
:103B5000514162464D0D28D10D0D07D100281FD0CF
:103B6000241940414941013A0D0DF9D0640006D3B2
:103B7000013000D30131002C01D140084000013A4E
:103B80000BD4941CE40A04D112051144DB07194438
:103B9000F0BDD907204B194300E0D9070020F0BD44
:103BA0000029DDD1002CDBD1F0BD0132C607400871
:103BB000CD0728434908002EE1D0D9E73C2E29DA69
:103BC000203E40371400BC4000D00124F240144392
:103BD0001A00BB401C43D317ACE7AC46202F08DAD1
:103BE00020360400B4400D00B540F8403941284368
:103BF000A5E73C2F0CDA203F40360400B44000D04B
:103C00000124F84004430800B1400C43C117EAE71F
:103C100010001900002494E70000F07FF0B50C0DAF
:103C2000661E3605891BE60A6405640D02D0651C14
:103C3000ED0A04D0002001210905803C2403A4469C
:103C40001C0D671E3F05DB1BE70A6405640D02D0EF
:103C5000651CED0A04D0002201231B05803C2403CF
:103C60007740644497B484B296B27443070C7E43A1
:103C7000150C6F4380B26843361802D3012000044C
:103C80003F183004350C00197D41844688B29AB241
:103C900050430C0C62431F0C7C438EB27E4392193E
:103CA00002D301263604A4191604170C36186741EE
:103CB00001BC81B29AB25143040C62431B0C5C43B9
:103CC00080B25843121802D30120000424181004B3
:103CD000130C401863412D185E410020474106BC7B
:103CE00088B293B258430C0C6343120C544389B20C
:103CF00051435B1802D301210904641819041A0CFA
:103D0000091862416D1856410020474118BCF9025C
:103D1000720D1143F0026A0D1043ED020A0D03D13A
:103D20006D1940414941013B124E9B1B7600B34245
:103D30000ED26D0007D3013000267141664635432F
:103D400001D1400840001B05C918E4072144F0BD1B
:103D50000BDA013306D1013004D101314F0D01D00E
:103D60004908F2E7E1070020F0BD013631050020E7
:103D7000EBE70000FF030000F0B51C0D671E3F05D8
:103D8000DB1BE70A6405640D02D0661CF60A04D04A
:103D9000002201231B05803C2403D0252D0600268C
:103DA000F6432E661E096E66CE0FF619B44649001C
:103DB0004F0D02D07E1CF60A03D000200021403FA8
:103DC0003F033E1BB600B444013F7F05C91B4908B1
:103DD0002E6F013676089C02950D25437543ED1331
:103DE0007543AD1301356D10F603761B0CB4CC0290
:103DF000450D2C43A2B2B3B25A43270C7B43350C7A
:103E00006F43A4B26C431B1902D3012424043F194D
:103E10001C041D0CA4187D4124196D41009A91B217
:103E2000ACB26143170C7C432B0C5F4392B25A43F4
:103E3000A41802D301221204BF182204230C521822
:103E40007B41019C6C431B19520ED9010A4344016A
:103E5000A01A81B2B2B2514303145A43360C7343D1
:103E600087B27743D617D21900277E4136049B19B3
:103E70001704160C7F185E417316ED18F301002627
:103E800080337541A90F06D16400690AE8055B0A11
:103E9000184309D22FE00422944480337541A90AC3
:103EA000A8059B0A184326D3404149412404009A9F
:103EB000019B0D005543641B4343E41A95B286B23F
:103EC0007543170C7E43030C5F4392B25A43B618F6
:103ED00002D301221204BF183204330C52197B4161
:103EE00052429C41002C02D4002201305141400832
:103EF000CA071043490802B06246D7079210084B20
:103F0000D218084B9A4203D212058918C919F0BD7C
:103F10000020002A01DC3900F0BD01331905F5E766
:103F2000FD030000FE070000002200B5203200F073
:103F300010F8080000BD002200B500F00CF8CA1708
:103F40009A4200D100BDD8430121C907414000BDBC
:103F500000220B150AD410B5944600F0A7F81414EB
:103F6000013400DA0021CB17144C20470020002137
:103F700070476244343A0CD40C2A07DA04009140AA
:103F8000904052422032D440214310BDD843D943FF
:103F900010BD203207D40C469440524220321141C9
:103FA000D040204310BD0800C917203203D452422C
:103FB0002032104110BD1800190010BD733F0010D1
:103FC0004A00520D144BD21A13DDFF2A1EDAD20515
:103FD000CB0FDB071A43C300400F0903490A08430C
:103FE00010435B0001D301D0013070474308FBD27E
:103FF000704702D0C80FC00770470A03121301327E
:10400000F8D1420F072AF5D1012200E0FF22C80FA4
:1040100000028018C00570478003000000210A00DC
:10402000002104E000210A00C11704E0002200235F
:1040300006E0C0460022CB1758405940C01A9941AB
:1040400030B5184CA21A002903D1010010D000206D
:10405000203A4C1512D104D2013A001849414C0DB6
:10406000FAD3114CA24204D212058918DB07C918F1
:1040700030BDD243520D00200021F5E703D4013AB0
:1040800000184941FBD50B324405C00A4D052843B1
:10409000C90A640003D0002460416141E1E7E0D334
:1040A0004408F8E732040000FE0700000A0DCC0FB8
:1040B000531E1B05C91A520503D3C943404200D3FE
:1040C0000131520D03D0531CDB0A07D0121B002014
:1040D0006400611C89078912803A1203014BD21ACD
:1040E00070470000FF03000051434343C9188C464A
:1040F000110C83B24B4310B4040C614392B280B2F2
:10410000504362431C041B0C001910BC594113049A
:10411000120CC018514161447047000070B5132360
:104120001E782A48FFF788F80500012E11D0012ECD
:1041300009DDAB1E1B789B007F2B40DD24488022CD
:10414000290000F0B9F82348FFF76EF8224B1860F9
:1041500070BD1F485422290000F0AEF81F4B1A888A
:104160001F4B9A421CD1A7239B011A881D4B9A42D0
:1041700016D11D4B1A881D4B9A4211D11C4B1A881F
:1041800094239B019A420BD11A4B1A881A4B9A42DC
:1041900006D11A4B1A681A4B9A4201D1152307E02F
:1041A0001848FDF72BFF184C094A99008C50013331
:1041B0001F2BF8D9144B064A1362D361B7E7134B90
:1041C000134A14484221FDF781FEC04653460000C1
:1041D000100E00204C3300000C0E0020EE290000D1
:1041E000C40F0000C20D0000962B0000C0B50000F7
:1041F000182B0000CC2A000010B50000FC2C000099
:1042000051ED8764B89E0010194200102CA90010CF
:10421000C4AF001060A9001007B56046002800D1A7
:1042200000BE01880A0A0230DF2AFAD1C9B2820828
:1042300004D3028840880004104300E00068024A6A
:104240005050039007BD0000100E002010B500284C
:1042500004D04018034B984200D810BD0248FDF727
:10426000CDFEC04600000420D8A9001070B505009E
:1042700000F028FB04002900FFF7E8FF200070BDD4
:1042800070B50D0000F024FE04002900FFF7DEFFEA
:10429000200070BD10B500F01FFB10BD01480421C7
:1042A000014B1847C002002049320010014B1B6827
:1042B00018470000C0020020014B5B68184700004F
:1042C000C002002010B50300080011001B689847C9
:1042D00010BD0000F8B507000D001600437D002B4F
:1042E00002D0002400200CE0036811002800984749
:1042F0002DE03B7D10E03B68154802219847601C8B
:104300000134B44214DA002CF3DD2B19013B1B7885
:104310000D3B5A425341DBB22A5D0A2AF0D1002BF1
:10432000EED1A042E7DA3B68211A28189847E2E765
:10433000B04203DA3B68311A28189847002E06DD90
:10434000AD19013D2B780D3B5A4253413B75F8BDE9
:10435000FCAF001070B505000368002B16D00C4BA5
:104360001C6805E0290004C92000FFF7B3FF246999
:10437000002C09D02368002BF9D0064B1B68002BBA
:10438000F0D0A342F3D1EDE700232B6070BDC0460F
:104390009C0C0020A40C002070B505000C000B68DC
:1043A000802B05D023685A1C2260E418257170BD4B
:1043B0000800FFF7CFFFF5E710B5002B02DB026026
:1043C000436010BD024B034A03483F21FDF77EFDC9
:1043D00080A1001000B000109CA1001010B582B0A8
:1043E0000400FDF735F802000B006846FFF7E4FF14
:1043F000009A019B22606360200002B010BD0000A3
:1044000070B582B0060014001D00FA22920000234D
:1044100006980021FFF768FE02000B0012196B419D
:10442000002B09DB6846FFF7C7FF009A019B32604B
:104430007360300002B070BD01225242004BF1E7C0
:10444000FFFFFF7F30B585B004000D0002A8FFF725
:10445000C5FF029A039B00952000FFF7D1FF2000C3
:1044600005B030BD00B583B0FA2189006846FFF77A
:10447000E9FF009A019B024805F00AFD03B000BD68
:104480008C09002010B5024805F0EAFC10BDC046BA
:104490008C090020F0B5CE46474680B583B00600B3
:1044A0000D0090461C00FFF7DDFF81466B1C05D018
:1044B000002C08D0194F1A4B1C6807E0300000F0A0
:1044C00067FF0500F4E7174FF5E72469002C17D0C4
:1044D0002368002BF9D0144B1B68002B01D0A3429A
:1044E000F3D12A0031002000B8474346002BECD01E
:1044F0006B46D91D0A230B7001222000B847E4E760
:104500004B46002B07D16B1E9D41E8B203B0C0BCE7
:10451000B946B046F0BDFFF7B5FFF4E7C54200105D
:104520009C0C0020D5420010A40C0020094A01E098
:1045300010331A001368002B08D08342F8D10029E9
:1045400007D1036913600023036102E0002900D052
:10455000106070479C0C002010B5064B1C6801E0F1
:1045600098472469002C03D06368002BF8D1F8E742
:1045700010BDC0469C0C002070B5050000F008FF7F
:1045800004000023012201002800FFF783FFFFF74A
:10459000E3FF200070BD000070B5A2B004000E0063
:1045A000FFF760FF0500002301930A483300220053
:1045B00001A9FEF721FE040001A8FFF7CBFEFFF7DB
:1045C000CBFF002D02D1200022B070BDFFF75AFFB3
:1045D000F9E7C046994300100FB400B583B004A9B1
:1045E00001C90191FFF7D8FF03B008BC04B0184718
:1045F00010B500F0FFF8012010BD000010B582B02A
:104600000C00144BC3185A425341134A5B009B5E83
:104610008B4204D06B46DA1D1470002115E06B4606
:10462000DA1D0D23137000210029F3D183699B0645
:10463000FCD41378036001310132F5E783699B06EE
:10464000FCD413780360013101320029F6D002B0A6
:1046500010BDC0460080FCBF240F002082B00022A5
:104660006B46D91D06E08369DB06FCD403680B703A
:1046700001320131002AF6D06B46D87902B070477A
:1046800070B506000D00002405E0315D034B18688D
:10469000FFF7B4FF0134AC42F7DB70BD280F0020F8
:1046A000F8B506000D00002705E07C1CF719FFF7A0
:1046B000D5FF38702700AF4204DA0E4A10688269CD
:1046C000D206F2D50C4A1268002A0CD0094A1268A8
:1046D0005021916310003430526B18391140802200
:1046E000520102431160002F01D03800F8BD033F92
:1046F000FBE7C046280F0020280C002010B5064B11
:104700001B68002B06D0054A126800219163044AF9
:104710001068984710BDC046280C0020280F0020C4
:104720002C0C002070B505000E001C4B1A681C4BA9
:10473000D31859424B4114331C0000281ED0194B8A
:104740001B68002B04D0174B1D60174B1E6070BDFB
:1047500016492000FCF728F801212000FCF714F886
:104760000E4B1B6850229A63190034315B6B183A68
:104770001A4080235B010B431A60E4E7094B1B6876
:10478000002BE0D00023936300212000FBF7FCFF07
:1047900006492000FCF732F8D5E7C046280F002074
:1047A0000080FCBF280C00202C0C0020FD460010CF
:1047B00070B50D001C000D4B1860002A0BDA002CA0
:1047C0000EDA0A4B18682900FDF768F9084801213C
:1047D000FFF7ACFE70BD02211000FBF7CDFEEEE747
:1047E00002212000FBF7C8FEEBE7C046280F00209F
:1047F000D002002010B5064B1B78064B1B78E12138
:104800000123002249020448FFF7D2FF10BDC04631
:104810002C230110282301100040034070B50B0C1D
:104820000024150C002B28D1002D3CD18BB291B265
:10483000594300F05BF8051E33D00300083B5A686B
:1048400003239A43043A242A12D80300132A0AD9CC
:104850000460446008331B2A05D98460C460242A9C
:104860002AD00300103300221A605A609A6002E0D6
:104870000021FFF71BFD280070BD002D16D1151C6F
:1048800089B292B24A43ADB29BB26B43110C5B1832
:10489000190C0BD1190492B2114300F027F8051E30
:1048A000CBD10025E7E72B1C0D1CE9E700F058FDF4
:1048B0000C2300250360DEE7030004611833446124
:1048C000D1E7C04610B5034B0100186800F00EF8A0
:1048D00010BDC046F806002010B5034B0100186853
:1048E00000F0DEFD10BDC046F8060020F0B54E46D3
:1048F0004546DE465746E0B50D000B35060085B04F
:10490000162D27D8102900D9DAE000F0D1FA1025A9
:1049100018230221C74FFB181A005C68083A94421A
:1049200000D146E103226368A1689343E268CA604C
:1049300091600121E3185A6830000A435A6000F080
:10494000BFFA2000083005B0F0BCBB46B246A9460D
:10495000A046F0BD07239D4300D5B1E0A94200D990
:10496000AEE000F0A5FAFC235B009D4200D29AE184
:10497000690A00D1A8E0042900D94FE138239846FC
:10498000A90988443931CB00082252429446A94FE4
:10499000FB189C446346DC68A44514D00323994665
:1049A0000B0061469C4607E0E068002A00DBFAE065
:1049B000814200D1FBE004004A46636893435A1BDE
:1049C0000F2AF1DD41463A003C690832944200D199
:1049D000D8E0032063688343581B0F2800DD66E19D
:1049E0003A617A610028A4DA7A68904680229200BF
:1049F000934200D3E3E0DA0858090123834040469C
:104A000018438046D300DB199A687860E360A2609F
:104A10009C60D46001208B10984040455CD8434690
:104A200003420AD103239943434640000431034221
:104A300003D1400004310342FBD00323B3469C461C
:104A40000E00B8460190F00040440100B246CB6829
:104A50000BE064465A681F00A243DB68541B0F2C0E
:104A600000DDF3E0002C00DB0DE19942F1D10123E0
:104A70009946CA44534608319B07E8D1032205E012
:104A800003680838013E834200D00AE23242F7D17F
:104A90004346019A5B68934342465360019A520031
:104AA00001929A4216D8002A06D113E004229146B8
:104AB000019ACA44520001921342F7D05646C2E707
:104AC0000C23002033603EE780233F2240219046A4
:104AD0009B0059E75E4647460322BC6863689343E0
:104AE0009946AB4202D35B1B0F2B4EDC23004B4499
:104AF0000293514B08201B6810335B19019300F09F
:104B000039FC4E4903900B688B46013306D084462E
:104B1000019B4242013B63441340019330000199E1
:104B200000F00CFC03008046013300D1DDE0029B65
:104B3000834200D9D7E0019A414B944619689A46BE
:104B40006144039A1960029B0800013A434500D072
:104B5000EAE04346134200D0E6E0BB68984663466D
:104B60004B441A0001231A4343465A60354B1868D8
:104B7000884200D21960344B1868884200D219600C
:104B80004446B4E07B68984644E701222900134379
:104B90001143651961603000BD606B6000F090F9F1
:104BA00020000830CFE6A268D0608260C1E661468E
:104BB00009E7DC680231A34200D104E7B2E65A0AF1
:104BC000042A00D888E0142A00D90FE110005B30D5
:104BD00082465C32D200082040428446BA1894448F
:104BE000624692680B308146944500D1E5E00800AA
:104BF000A2466146844602E09268914204D04C4647
:104C00005068A0439842F7D8D368614654469C4602
:104C10006346A260E3609C60D460FBE6142973D90C
:104C2000542900D9EBE06E239846290B88446F3154
:104C3000CB00A9E6F0020020DC0A0020E8020020F8
:104C4000AC0A0020D40A0020D80A0020BA4601206D
:104C50005146844649190543504645608568474694
:104C60006046EB605E469D60534639617961204342
:104C700008374860CF6030008F609C5000F020F90A
:104C8000504608305FE6BA4601205E4652445168FD
:104C900001435160BA683000D3609A6000F010F9A7
:104CA000380008304FE62B00E908083332E6611976
:104CB000884601218C460D43414665603961796122
:104CC000CA608A60624602434A60E050300000F0E9
:104CD000F7F82000083036E69A09100039323830EB
:104CE0008246D20077E7BC4214D0BC6862680323D6
:104CF0009A43531BAA4202D30F2B00DD45E7300035
:104D000000F0DEF800201EE65B23984688445C3104
:104D1000CB0039E6644B9A461868019B9C46534683
:104D200060441860039B5A1E5B461B68013371D0B8
:104D3000434602995B1A51461B180B6007234146F4
:104D4000404619400291184240D0039801338446EE
:104D50005B1A0199984441440191634411405B1AE4
:104D60001A4011003000934600F0E8FA431C78D056
:104D70004346C01A03005B4401935346196801205F
:104D8000594419604346019ABB6002435A60BC42D1
:104D900000D1EBE64B460F2B40D907220C3B934347
:104DA0006268024005201A436260E2185060906019
:104DB0000F2B4BD843465A68D8E653469810012328
:104DC0008340404618438046786021E7019B039961
:104DD00043441340CB1A1A4011003000934600F0B0
:104DE000ADFA431CC4D100239B46C6E7542A18D809
:104DF0001A0B10006F326E308246D200EBE6AA2307
:104E00005B00994218D8DD3B9846E90B884478311D
:104E1000CB00B9E55B46414619608FE743465860D1
:104E20006DE7AA204000824226D8DA0B10007832C3
:104E300077308246D200CEE61C4B994226D87C239E
:104E40009846A90C88447D31CB009DE521003000B7
:104E5000083100F025FB53461968BB6898465A682C
:104E600084E6019A029B94464246083B63449B1A9F
:104E7000019300239B4680E70C4882420CD89A0C91
:104E800010007D327C308246D200A4E6FE237E22D2
:104E90007F2190469B0077E5FE227E20920082468D
:104EA00099E643465B68F9E5AC0A0020540500002A
:104EB00010B5024800F05AFA10BDC046A80A0020FA
:104EC00010B5024800F054FA10BDC046A80A0020F0
:104ED000030010B50A0003490868190000F004F83F
:104EE00010BDC046F8060020F0B557464E46DE46D7
:104EF0004546E0B50C000600170083B0002900D13C
:104F0000ACE0FFF7D5FF08235B429946A1444B462E
:104F10005B68032219003D0091430B35CA46884661
:104F2000162D67D81025AF4267D8A8456EDA4946D6
:104F3000C04841444A68009080689346884200D146
:104F4000A0E00120844610006246904308184068A3
:104F5000104200D077E05A46032082439346C34470
:104F60005D454EDD6046184212D14B4648461B68EF
:104F7000C31A03209B465B688343D21842440092C5
:104F8000954200DCCCE0434400939D4200DCCBE042
:104F900039003000FFF7AAFC071E00D11EE14B4686
:104FA00001225B68934302004B44083A934200D1CC
:104FB000E3E04246043A242A00D9E3E0030021005A
:104FC000132A09D923680360636843601B2A00D948
:104FD000DCE00300083108330A681A604A685A6046
:104FE0008A689A603000210000F05AFA3000FFF71A
:104FF00067FF20E00432954395D50C2300273360EA
:1050000019E0D846CB688A68D3609A6043465F1B34
:105010005346012250465B68404413400F2F22D86C
:1050200041460B4351464B60436813434360300095
:10503000FFF746FF2700380003B0F0BCBB46B2467E
:10504000A946A046F0BD1A42A2D14B464A461B686B
:10505000D31A03229B465B68934394E71100FFF742
:1050600045FC0700E7E751462B43491955461743CE
:105070006B604F604368083113434360300000F0B9
:105080000FFAD4E703218A4394462900C44410311F
:105090008C4500DB84E0DB0700D579E74B464846CA
:1050A0001B68C31A03209B465B688343D2184244A3
:1050B0000192914200DD66E75B465A46DB689268E2
:1050C0005F46D3609A604246043A0837242A00D9E2
:1050D00099E03B00132A0AD9594623688B6063681C
:1050E000CB601B2A00D993E05B460834103322685A
:1050F0001A6062685A60A2689A605B460122591978
:10510000009B30009960019B5B1B13434B605B4627
:105110005B6813405A462B435360FFF7D1FE8AE782
:10512000CB688A68D3609A605B465A46DB689268AF
:105130005F46D3609A604246043A0837242A17D85B
:105140003B00132A09D9594623688B606368CB60FA
:105150001B2A39D85B460834103322681A6062680B
:105160005A60A2689A60009B3C009846DA464DE778
:105170002100380000F08AF8F5E703225B689343CA
:10518000984443E7210000F081F82BE7A36883608F
:10519000E368C360242A26D00300103110331BE7D4
:1051A0004B465919009B0122996063465B1B1343D0
:1051B0004B604B465B68300013404A462B435360BC
:1051C000FFF77EFE270036E7A3680B61E3684B61BB
:1051D000242A10D05B4610341833BEE73000FFF7A6
:1051E0006FFE002727E72369183103610300626916
:1051F00018334261F0E623698B615B4662692033B4
:10520000CA611834A9E72100380000F03FF874E7BC
:10521000A3680B61E3684B61242A03D05B4610341A
:10522000183364E723698B615B4662692033CA6186
:1052300018345CE7F00200200EB430B581239CB036
:105240006A461FAC9B0020CC93820290069000F02F
:105250009FF80B4B6A460A9300230E931393013B6E
:10526000D382084B039007902A00186802A92300F4
:10527000019400F0FFF91CB030BC08BC03B0184723
:1052800089520010F806002000207047F0B58842CF
:105290000AD98B18984207D2531E002A03D0CA5C41
:1052A000C254013BFBD2F0BD05000F2A0AD8561E9E
:1052B000002AF8D00023CC5C1A00EC54013396424B
:1052C000F9D1F0E703273E000D430C0003002E4008
:1052D0002F422DD11500103D2D09AC462F013F184E
:1052E00025681D6065685D60A5689D60E56810348F
:1052F000DD601D001033BD42F2D165460F230C2442
:1053000001352D01491913404519144213D0043BAE
:105310009B0801339B008C59AC5104369E42FAD154
:1053200003231A40AD198919561E002AC2D1BAE7C3
:105330000500561EBEE71A00B9E7C046002370B547
:10534000064C050008002360FCF7A0FD431C00D0BC
:1053500070BD2368002BFBD02B60F9E7A00C002068
:10536000014B18687047C046F80600207047C046D9
:105370007047C046802310B55B01082801D1180092
:1053800010BDFFF7EDFF16230360173BF7E7C0469C
:1053900010B583070AD00300032102E001330B425A
:1053A00005D01A78002AF9D1181A10BD030019681F
:1053B0000C4A0D4C8A188A4322420FD15968094A77
:1053C00004338A188A43224208D15968054A0433B3
:1053D0008A188A432242F1D000E001331A78002A69
:1053E000FBD1E1E7FFFEFEFE80808080F0B5C6467F
:1053F000060000B508200D00FFF7BCFF04003000D8
:10540000FFF756FD234B210098469B685F680323F6
:105410009F4338001138401B0019FDF759FF451E06
:105420006543AC4208DC00213000FFF787FF4346AC
:105430009B68DB19984206D03000FFF741FD002041
:1054400080BCB846F0BD30006942FFF777FF0130FD
:105450000ED0012243467F1B9B6817430E4A5F60B4
:10546000136830005B1B1360FFF72AFD0120E7E79C
:1054700000213000FFF762FF43469A68831A0F2B22
:10548000DADD064C04492468001B086001210B4347
:105490005360D1E7F0020020AC0A0020E8020020AF
:1054A000F8B5CE46474605000C0080B5002957D018
:1054B000FFF7FEFC012321009C460839486862463C
:1054C000030003249343CF187A68654EA243B4685F
:1054D000BC4200D170E0BC18A14664467A60044228
:1054E00021D10868091A1B18886880464846406818
:1054F0002040340008348146A04551D04046CC6855
:10550000C460A0604846002811D19B185548BA686D
:10551000824200D17FE0F868D060826001221A43A5
:105520004A60CB5007E0484640682042EDD06246D2
:105530001A434A603B6080229200934214D2DA08F8
:10554000580901238340706803437360D3009B199B
:105550009A68CB608A609960D1602800FFF7B0FC40
:10556000C0BCB946B046F8BD5C0A042C3DD89C09C5
:10557000200039343830E40034192268083C03270D
:10558000944203D140E09268944203D05068B843FB
:105590009842F8D8D468CC608A60A160D160DCE71A
:1055A000002858D1B868D218FB68C3609860634679
:1055B00013434B608A50D0E79A186346034206D1E2
:1055C0000B68C91A8868D218CB68C3609860012339
:1055D00013434B60244BB1601B689342BDD8234BEF
:1055E00028001968FFF702FFB7E7142C07D9542CDD
:1055F0001AD81C0B20006F346E30E400BCE720008A
:105600005C345B30E400B7E70123801083407068AE
:1056100003437360BFE7D1609160CA608A60012272
:105620001A434A60CB5098E7AA225200944205D808
:10563000DC0B200078347730E4009DE70C4A94427C
:1056400005D89C0C20007D347C30E40094E7FE24D7
:105650007E20A40090E762461A434A603B607CE7E4
:10566000F0020020F8020020EC020020DC0A0020FA
:1056700054050000F0B557464E46DE464546E0B5B7
:10568000874C0E00A54402AFBB63B865FA650C23D6
:10569000CA5E80239B011A4205D113438B81814A44
:1056A0004B6E13404B66602008231B18D819082244
:1056B0000021FEF7FBFD00239B46BB62BB647B65BC
:1056C0007B64FB64784B3B65784BFB63784BFB62F8
:1056D000E4233A6DD45801F07DFC60210822521871
:1056E000D219009204310300FA6DB86D7918A04701
:1056F000002828DBFB6D02009C4684446346FB6562
:105700007B6E002B58D001282DD0252B33D00028BC
:10571000DED0584404005846A0465C46F96D7368D4
:105720000D1AAD1A002B37DD32682B5D11789942C6
:1057300042D173680132013B0134736032604445E9
:10574000F0D1A346C4E75B4B60207B6608231B189F
:10575000D81908220021FEF7A9FDFB6D0133FB6576
:105760007B6E002B28D0FA6AD25C12076CD401221F
:105770000120252BCDD1FB6D002419780023944600
:105780009A46FB6D5D1C0B00253BDBB2552B13D8F5
:10579000FA6B9B00D3589F463100B86D03F07EF83A
:1057A0000028C1D0FB6C002B01D101F01BFAB3899A
:1057B0005B0601D501F016FABB6C002B08D0BB6C60
:1057C0001868FB6C013314D0002801D0FEF762FD8D
:1057D000BD46F86CB9239B009D44F0BCBB46B24665
:1057E000A946A046F0BDFB6C002B02D0B3895B0636
:1057F000E5D5BB6CDB883B63BB6C18683B6B002B4F
:105800000ED0050000240026814698462B680134FE
:105810001868FEF73FFD08CD1E60A045F6DC48463F
:1058200001235B42FB640028D0D1D1E72307C3D119
:10583000FB6DFD655978A4E72307BDD102231C4306
:10584000FB6DFD6559789CE7FA6A08245D46904631
:1058500073680BE0414632681378CB5C1C420DD074
:1058600073680132013B013573603260002BF1DC5B
:105870003100B86D03F012F80028EBD0AB4627E7F3
:105880008F23234298D1534630229B0052425344E7
:1058900092465B005B189A44FB6DFD65597870E792
:1058A00014FDFFFFFFDFFFFF200800202CB00010D9
:1058B00041B50010FDFF0000042398463D64736865
:1058C000002B00DDF3E03100B86D02F0E7FF0028A7
:1058D00000D067E73B6CFB65630601D401F0F9FA81
:1058E0004346032B00D113E1042B01D100F02CFC23
:1058F000012B00D122E3022B00D0CFE15346002B35
:1059000001D1013B9A46102323409946E30701D475
:1059100000F080FE4B46002B01D001F07EF8BB6BFF
:1059200004CB3A64BB63240601D401F0ADF9002A2C
:1059300000D141E78020FEF799FC8046002801D184
:1059400001F045FA3B6C1860BB6CDA883A639C88BE
:10595000A24201D301F0C8F818683A6BB96C531C25
:10596000CB803B6C95002B5043463B6320237B63ED
:105970003368C64D1B78EB5C1B0772D4534600247A
:105980003B6001F027FBA04200D10BE790214900CA
:105990008C46C0398A46BA44D44461463368621C96
:1059A0007A621A7801330A55726833607B6D013A66
:1059B00039627260032B01D001F0D4F81823602201
:1059C0009B18DC19BB6F042B04D008220021200097
:1059D000FEF76CFC7B6A4146FB6100943A6AB86D45
:1059E00002F0FCFD7865431C00D1DBE6002801D005
:1059F00001F014F942461060002002F019FE002860
:105A000001D001F0FDF97B6A9C46E34401235B422F
:105A10009C463B6863443B604B46002B01D001F041
:105A200030F904339C463B6CE044002B01D101F07B
:105A300028F943463A6B00249B1A7A6B7B629B10D1
:105A4000934201D301F005FA7368002B01DC01F0E9
:105A500091F933681B78EB5C1B0702D43B68002B81
:105A60008FD14B46002B00D032E643464A461A609F
:105A70003B6C002B09D043463A6B991A8B107A6B1A
:105A800001339A4201D901F096F8FB6C0133FB64B3
:105A90001EE680233D649B001C437D4BBB621023AC
:105AA0007B640D3B98467368002B00DC0BE7326883
:105AB000764D1378EB5C1B0701D401F018F908232D
:105AC00099462B005D46A3461C0006E0494601327C
:105AD00032601378E35C194212D073680135013BE0
